{
	"contracts/05ViewInSolidity.sol": {
		"View": {
			"abi": [
				{
					"inputs": [],
					"name": "calculateResults",
					"outputs": [
						{
							"internalType": "uint256",
							"name": "product",
							"type": "uint256"
						},
						{
							"internalType": "uint256",
							"name": "total",
							"type": "uint256"
						}
					],
					"stateMutability": "view",
					"type": "function"
				},
				{
					"inputs": [],
					"name": "getResults",
					"outputs": [
						{
							"internalType": "uint256",
							"name": "",
							"type": "uint256"
						},
						{
							"internalType": "uint256",
							"name": "",
							"type": "uint256"
						}
					],
					"stateMutability": "view",
					"type": "function"
				},
				{
					"inputs": [],
					"name": "num1",
					"outputs": [
						{
							"internalType": "uint256",
							"name": "",
							"type": "uint256"
						}
					],
					"stateMutability": "view",
					"type": "function"
				},
				{
					"inputs": [],
					"name": "num2",
					"outputs": [
						{
							"internalType": "uint256",
							"name": "",
							"type": "uint256"
						}
					],
					"stateMutability": "view",
					"type": "function"
				}
			],
			"devdoc": {
				"kind": "dev",
				"methods": {},
				"version": 1
			},
			"evm": {
				"assembly": "    /* \"contracts/05ViewInSolidity.sol\":69:532  contract View {... */\n  mstore(0x40, 0x80)\n    /* \"contracts/05ViewInSolidity.sol\":114:115  2 */\n  0x02\n    /* \"contracts/05ViewInSolidity.sol\":92:115  uint256 public num1 = 2 */\n  0x00\n  sstore\n    /* \"contracts/05ViewInSolidity.sol\":144:145  7 */\n  0x07\n    /* \"contracts/05ViewInSolidity.sol\":122:145  uint256 public num2 = 7 */\n  0x01\n  sstore\n    /* \"contracts/05ViewInSolidity.sol\":69:532  contract View {... */\n  callvalue\n  dup1\n  iszero\n  tag_1\n  jumpi\n  0x00\n  dup1\n  revert\ntag_1:\n  pop\n  dataSize(sub_0)\n  dup1\n  dataOffset(sub_0)\n  0x00\n  codecopy\n  0x00\n  return\nstop\n\nsub_0: assembly {\n        /* \"contracts/05ViewInSolidity.sol\":69:532  contract View {... */\n      mstore(0x40, 0x80)\n      callvalue\n      dup1\n      iszero\n      tag_1\n      jumpi\n      0x00\n      dup1\n      revert\n    tag_1:\n      pop\n      jumpi(tag_2, lt(calldatasize, 0x04))\n      shr(0xe0, calldataload(0x00))\n      dup1\n      0x15d4266c\n      eq\n      tag_3\n      jumpi\n      dup1\n      0x2ccb0d1e\n      eq\n      tag_4\n      jumpi\n      dup1\n      0x3b9eac4b\n      eq\n      tag_5\n      jumpi\n      dup1\n      0x4717f97c\n      eq\n      tag_6\n      jumpi\n    tag_2:\n      0x00\n      dup1\n      revert\n        /* \"contracts/05ViewInSolidity.sol\":122:145  uint256 public num2 = 7 */\n    tag_3:\n      tag_7\n      tag_8\n      jump\t// in\n    tag_7:\n      mload(0x40)\n      tag_9\n      swap2\n      swap1\n      tag_10\n      jump\t// in\n    tag_9:\n      mload(0x40)\n      dup1\n      swap2\n      sub\n      swap1\n      return\n        /* \"contracts/05ViewInSolidity.sol\":379:529  function calculateResults() public view returns(uint256 product, uint256 total) {... */\n    tag_4:\n      tag_11\n      tag_12\n      jump\t// in\n    tag_11:\n      mload(0x40)\n      tag_13\n      swap3\n      swap2\n      swap1\n      tag_14\n      jump\t// in\n    tag_13:\n      mload(0x40)\n      dup1\n      swap2\n      sub\n      swap1\n      return\n        /* \"contracts/05ViewInSolidity.sol\":92:115  uint256 public num1 = 2 */\n    tag_5:\n      tag_15\n      tag_16\n      jump\t// in\n    tag_15:\n      mload(0x40)\n      tag_17\n      swap2\n      swap1\n      tag_10\n      jump\t// in\n    tag_17:\n      mload(0x40)\n      dup1\n      swap2\n      sub\n      swap1\n      return\n        /* \"contracts/05ViewInSolidity.sol\":201:332  function getResults() public view returns(uint256, uint256){... */\n    tag_6:\n      tag_18\n      tag_19\n      jump\t// in\n    tag_18:\n      mload(0x40)\n      tag_20\n      swap3\n      swap2\n      swap1\n      tag_14\n      jump\t// in\n    tag_20:\n      mload(0x40)\n      dup1\n      swap2\n      sub\n      swap1\n      return\n        /* \"contracts/05ViewInSolidity.sol\":122:145  uint256 public num2 = 7 */\n    tag_8:\n      sload(0x01)\n      dup2\n      jump\t// out\n        /* \"contracts/05ViewInSolidity.sol\":379:529  function calculateResults() public view returns(uint256 product, uint256 total) {... */\n    tag_12:\n        /* \"contracts/05ViewInSolidity.sol\":427:442  uint256 product */\n      0x00\n        /* \"contracts/05ViewInSolidity.sol\":444:457  uint256 total */\n      dup1\n        /* \"contracts/05ViewInSolidity.sol\":487:491  num2 */\n      sload(0x01)\n        /* \"contracts/05ViewInSolidity.sol\":480:484  num1 */\n      sload(0x00)\n        /* \"contracts/05ViewInSolidity.sol\":480:491  num1 * num2 */\n      tag_22\n      swap2\n      swap1\n      tag_23\n      jump\t// in\n    tag_22:\n        /* \"contracts/05ViewInSolidity.sol\":470:491  product = num1 * num2 */\n      swap2\n      pop\n        /* \"contracts/05ViewInSolidity.sol\":517:521  num2 */\n      sload(0x01)\n        /* \"contracts/05ViewInSolidity.sol\":510:514  num1 */\n      sload(0x00)\n        /* \"contracts/05ViewInSolidity.sol\":510:521  num1 + num2 */\n      tag_24\n      swap2\n      swap1\n      tag_25\n      jump\t// in\n    tag_24:\n        /* \"contracts/05ViewInSolidity.sol\":502:521  total = num1 + num2 */\n      swap1\n      pop\n        /* \"contracts/05ViewInSolidity.sol\":379:529  function calculateResults() public view returns(uint256 product, uint256 total) {... */\n      swap1\n      swap2\n      jump\t// out\n        /* \"contracts/05ViewInSolidity.sol\":92:115  uint256 public num1 = 2 */\n    tag_16:\n      sload(0x00)\n      dup2\n      jump\t// out\n        /* \"contracts/05ViewInSolidity.sol\":201:332  function getResults() public view returns(uint256, uint256){... */\n    tag_19:\n        /* \"contracts/05ViewInSolidity.sol\":243:250  uint256 */\n      0x00\n        /* \"contracts/05ViewInSolidity.sol\":252:259  uint256 */\n      dup1\n        /* \"contracts/05ViewInSolidity.sol\":279:283  num1 */\n      sload(0x00)\n        /* \"contracts/05ViewInSolidity.sol\":285:289  num2 */\n      sload(0x01)\n        /* \"contracts/05ViewInSolidity.sol\":271:290  return (num1, num2) */\n      swap2\n      pop\n      swap2\n      pop\n        /* \"contracts/05ViewInSolidity.sol\":201:332  function getResults() public view returns(uint256, uint256){... */\n      swap1\n      swap2\n      jump\t// out\n        /* \"#utility.yul\":7:84   */\n    tag_27:\n        /* \"#utility.yul\":44:51   */\n      0x00\n        /* \"#utility.yul\":73:78   */\n      dup2\n        /* \"#utility.yul\":62:78   */\n      swap1\n      pop\n        /* \"#utility.yul\":7:84   */\n      swap2\n      swap1\n      pop\n      jump\t// out\n        /* \"#utility.yul\":90:208   */\n    tag_28:\n        /* \"#utility.yul\":177:201   */\n      tag_33\n        /* \"#utility.yul\":195:200   */\n      dup2\n        /* \"#utility.yul\":177:201   */\n      tag_27\n      jump\t// in\n    tag_33:\n        /* \"#utility.yul\":172:175   */\n      dup3\n        /* \"#utility.yul\":165:202   */\n      mstore\n        /* \"#utility.yul\":90:208   */\n      pop\n      pop\n      jump\t// out\n        /* \"#utility.yul\":214:436   */\n    tag_10:\n        /* \"#utility.yul\":307:311   */\n      0x00\n        /* \"#utility.yul\":345:347   */\n      0x20\n        /* \"#utility.yul\":334:343   */\n      dup3\n        /* \"#utility.yul\":330:348   */\n      add\n        /* \"#utility.yul\":322:348   */\n      swap1\n      pop\n        /* \"#utility.yul\":358:429   */\n      tag_35\n        /* \"#utility.yul\":426:427   */\n      0x00\n        /* \"#utility.yul\":415:424   */\n      dup4\n        /* \"#utility.yul\":411:428   */\n      add\n        /* \"#utility.yul\":402:408   */\n      dup5\n        /* \"#utility.yul\":358:429   */\n      tag_28\n      jump\t// in\n    tag_35:\n        /* \"#utility.yul\":214:436   */\n      swap3\n      swap2\n      pop\n      pop\n      jump\t// out\n        /* \"#utility.yul\":442:774   */\n    tag_14:\n        /* \"#utility.yul\":563:567   */\n      0x00\n        /* \"#utility.yul\":601:603   */\n      0x40\n        /* \"#utility.yul\":590:599   */\n      dup3\n        /* \"#utility.yul\":586:604   */\n      add\n        /* \"#utility.yul\":578:604   */\n      swap1\n      pop\n        /* \"#utility.yul\":614:685   */\n      tag_37\n        /* \"#utility.yul\":682:683   */\n      0x00\n        /* \"#utility.yul\":671:680   */\n      dup4\n        /* \"#utility.yul\":667:684   */\n      add\n        /* \"#utility.yul\":658:664   */\n      dup6\n        /* \"#utility.yul\":614:685   */\n      tag_28\n      jump\t// in\n    tag_37:\n        /* \"#utility.yul\":695:767   */\n      tag_38\n        /* \"#utility.yul\":763:765   */\n      0x20\n        /* \"#utility.yul\":752:761   */\n      dup4\n        /* \"#utility.yul\":748:766   */\n      add\n        /* \"#utility.yul\":739:745   */\n      dup5\n        /* \"#utility.yul\":695:767   */\n      tag_28\n      jump\t// in\n    tag_38:\n        /* \"#utility.yul\":442:774   */\n      swap4\n      swap3\n      pop\n      pop\n      pop\n      jump\t// out\n        /* \"#utility.yul\":780:960   */\n    tag_29:\n        /* \"#utility.yul\":828:905   */\n      0x4e487b7100000000000000000000000000000000000000000000000000000000\n        /* \"#utility.yul\":825:826   */\n      0x00\n        /* \"#utility.yul\":818:906   */\n      mstore\n        /* \"#utility.yul\":925:929   */\n      0x11\n        /* \"#utility.yul\":922:923   */\n      0x04\n        /* \"#utility.yul\":915:930   */\n      mstore\n        /* \"#utility.yul\":949:953   */\n      0x24\n        /* \"#utility.yul\":946:947   */\n      0x00\n        /* \"#utility.yul\":939:954   */\n      revert\n        /* \"#utility.yul\":966:1376   */\n    tag_23:\n        /* \"#utility.yul\":1006:1013   */\n      0x00\n        /* \"#utility.yul\":1029:1049   */\n      tag_41\n        /* \"#utility.yul\":1047:1048   */\n      dup3\n        /* \"#utility.yul\":1029:1049   */\n      tag_27\n      jump\t// in\n    tag_41:\n        /* \"#utility.yul\":1024:1049   */\n      swap2\n      pop\n        /* \"#utility.yul\":1063:1083   */\n      tag_42\n        /* \"#utility.yul\":1081:1082   */\n      dup4\n        /* \"#utility.yul\":1063:1083   */\n      tag_27\n      jump\t// in\n    tag_42:\n        /* \"#utility.yul\":1058:1083   */\n      swap3\n      pop\n        /* \"#utility.yul\":1118:1119   */\n      dup3\n        /* \"#utility.yul\":1115:1116   */\n      dup3\n        /* \"#utility.yul\":1111:1120   */\n      mul\n        /* \"#utility.yul\":1140:1170   */\n      tag_43\n        /* \"#utility.yul\":1158:1169   */\n      dup2\n        /* \"#utility.yul\":1140:1170   */\n      tag_27\n      jump\t// in\n    tag_43:\n        /* \"#utility.yul\":1129:1170   */\n      swap2\n      pop\n        /* \"#utility.yul\":1319:1320   */\n      dup3\n        /* \"#utility.yul\":1310:1317   */\n      dup3\n        /* \"#utility.yul\":1306:1321   */\n      div\n        /* \"#utility.yul\":1303:1304   */\n      dup5\n        /* \"#utility.yul\":1300:1322   */\n      eq\n        /* \"#utility.yul\":1280:1281   */\n      dup4\n        /* \"#utility.yul\":1273:1282   */\n      iszero\n        /* \"#utility.yul\":1253:1336   */\n      or\n        /* \"#utility.yul\":1230:1369   */\n      tag_44\n      jumpi\n        /* \"#utility.yul\":1349:1367   */\n      tag_45\n      tag_29\n      jump\t// in\n    tag_45:\n        /* \"#utility.yul\":1230:1369   */\n    tag_44:\n        /* \"#utility.yul\":1014:1376   */\n      pop\n        /* \"#utility.yul\":966:1376   */\n      swap3\n      swap2\n      pop\n      pop\n      jump\t// out\n        /* \"#utility.yul\":1382:1573   */\n    tag_25:\n        /* \"#utility.yul\":1422:1425   */\n      0x00\n        /* \"#utility.yul\":1441:1461   */\n      tag_47\n        /* \"#utility.yul\":1459:1460   */\n      dup3\n        /* \"#utility.yul\":1441:1461   */\n      tag_27\n      jump\t// in\n    tag_47:\n        /* \"#utility.yul\":1436:1461   */\n      swap2\n      pop\n        /* \"#utility.yul\":1475:1495   */\n      tag_48\n        /* \"#utility.yul\":1493:1494   */\n      dup4\n        /* \"#utility.yul\":1475:1495   */\n      tag_27\n      jump\t// in\n    tag_48:\n        /* \"#utility.yul\":1470:1495   */\n      swap3\n      pop\n        /* \"#utility.yul\":1518:1519   */\n      dup3\n        /* \"#utility.yul\":1515:1516   */\n      dup3\n        /* \"#utility.yul\":1511:1520   */\n      add\n        /* \"#utility.yul\":1504:1520   */\n      swap1\n      pop\n        /* \"#utility.yul\":1539:1542   */\n      dup1\n        /* \"#utility.yul\":1536:1537   */\n      dup3\n        /* \"#utility.yul\":1533:1543   */\n      gt\n        /* \"#utility.yul\":1530:1566   */\n      iszero\n      tag_49\n      jumpi\n        /* \"#utility.yul\":1546:1564   */\n      tag_50\n      tag_29\n      jump\t// in\n    tag_50:\n        /* \"#utility.yul\":1530:1566   */\n    tag_49:\n        /* \"#utility.yul\":1382:1573   */\n      swap3\n      swap2\n      pop\n      pop\n      jump\t// out\n\n    auxdata: 0xa2646970667358221220442704fcc718271de0f32faf3be31fb885745c5ddd38946b215b100ce64bb67264736f6c63430008190033\n}\n",
				"bytecode": {
					"linkReferences": {},
					"object": "608060405260025f5560076001553480156017575f80fd5b50610239806100255f395ff3fe608060405234801561000f575f80fd5b506004361061004a575f3560e01c806315d4266c1461004e5780632ccb0d1e1461006c5780633b9eac4b1461008b5780634717f97c146100a9575b5f80fd5b6100566100c8565b6040516100639190610122565b60405180910390f35b6100746100ce565b60405161008292919061013b565b60405180910390f35b6100936100f6565b6040516100a09190610122565b60405180910390f35b6100b16100fb565b6040516100bf92919061013b565b60405180910390f35b60015481565b5f806001545f546100df919061018f565b91506001545f546100f091906101d0565b90509091565b5f5481565b5f805f54600154915091509091565b5f819050919050565b61011c8161010a565b82525050565b5f6020820190506101355f830184610113565b92915050565b5f60408201905061014e5f830185610113565b61015b6020830184610113565b9392505050565b7f4e487b71000000000000000000000000000000000000000000000000000000005f52601160045260245ffd5b5f6101998261010a565b91506101a48361010a565b92508282026101b28161010a565b915082820484148315176101c9576101c8610162565b5b5092915050565b5f6101da8261010a565b91506101e58361010a565b92508282019050808211156101fd576101fc610162565b5b9291505056fea2646970667358221220442704fcc718271de0f32faf3be31fb885745c5ddd38946b215b100ce64bb67264736f6c63430008190033",
					"opcodes": "PUSH1 0x80 PUSH1 0x40 MSTORE PUSH1 0x2 PUSH0 SSTORE PUSH1 0x7 PUSH1 0x1 SSTORE CALLVALUE DUP1 ISZERO PUSH1 0x17 JUMPI PUSH0 DUP1 REVERT JUMPDEST POP PUSH2 0x239 DUP1 PUSH2 0x25 PUSH0 CODECOPY PUSH0 RETURN INVALID PUSH1 0x80 PUSH1 0x40 MSTORE CALLVALUE DUP1 ISZERO PUSH2 0xF JUMPI PUSH0 DUP1 REVERT JUMPDEST POP PUSH1 0x4 CALLDATASIZE LT PUSH2 0x4A JUMPI PUSH0 CALLDATALOAD PUSH1 0xE0 SHR DUP1 PUSH4 0x15D4266C EQ PUSH2 0x4E JUMPI DUP1 PUSH4 0x2CCB0D1E EQ PUSH2 0x6C JUMPI DUP1 PUSH4 0x3B9EAC4B EQ PUSH2 0x8B JUMPI DUP1 PUSH4 0x4717F97C EQ PUSH2 0xA9 JUMPI JUMPDEST PUSH0 DUP1 REVERT JUMPDEST PUSH2 0x56 PUSH2 0xC8 JUMP JUMPDEST PUSH1 0x40 MLOAD PUSH2 0x63 SWAP2 SWAP1 PUSH2 0x122 JUMP JUMPDEST PUSH1 0x40 MLOAD DUP1 SWAP2 SUB SWAP1 RETURN JUMPDEST PUSH2 0x74 PUSH2 0xCE JUMP JUMPDEST PUSH1 0x40 MLOAD PUSH2 0x82 SWAP3 SWAP2 SWAP1 PUSH2 0x13B JUMP JUMPDEST PUSH1 0x40 MLOAD DUP1 SWAP2 SUB SWAP1 RETURN JUMPDEST PUSH2 0x93 PUSH2 0xF6 JUMP JUMPDEST PUSH1 0x40 MLOAD PUSH2 0xA0 SWAP2 SWAP1 PUSH2 0x122 JUMP JUMPDEST PUSH1 0x40 MLOAD DUP1 SWAP2 SUB SWAP1 RETURN JUMPDEST PUSH2 0xB1 PUSH2 0xFB JUMP JUMPDEST PUSH1 0x40 MLOAD PUSH2 0xBF SWAP3 SWAP2 SWAP1 PUSH2 0x13B JUMP JUMPDEST PUSH1 0x40 MLOAD DUP1 SWAP2 SUB SWAP1 RETURN JUMPDEST PUSH1 0x1 SLOAD DUP2 JUMP JUMPDEST PUSH0 DUP1 PUSH1 0x1 SLOAD PUSH0 SLOAD PUSH2 0xDF SWAP2 SWAP1 PUSH2 0x18F JUMP JUMPDEST SWAP2 POP PUSH1 0x1 SLOAD PUSH0 SLOAD PUSH2 0xF0 SWAP2 SWAP1 PUSH2 0x1D0 JUMP JUMPDEST SWAP1 POP SWAP1 SWAP2 JUMP JUMPDEST PUSH0 SLOAD DUP2 JUMP JUMPDEST PUSH0 DUP1 PUSH0 SLOAD PUSH1 0x1 SLOAD SWAP2 POP SWAP2 POP SWAP1 SWAP2 JUMP JUMPDEST PUSH0 DUP2 SWAP1 POP SWAP2 SWAP1 POP JUMP JUMPDEST PUSH2 0x11C DUP2 PUSH2 0x10A JUMP JUMPDEST DUP3 MSTORE POP POP JUMP JUMPDEST PUSH0 PUSH1 0x20 DUP3 ADD SWAP1 POP PUSH2 0x135 PUSH0 DUP4 ADD DUP5 PUSH2 0x113 JUMP JUMPDEST SWAP3 SWAP2 POP POP JUMP JUMPDEST PUSH0 PUSH1 0x40 DUP3 ADD SWAP1 POP PUSH2 0x14E PUSH0 DUP4 ADD DUP6 PUSH2 0x113 JUMP JUMPDEST PUSH2 0x15B PUSH1 0x20 DUP4 ADD DUP5 PUSH2 0x113 JUMP JUMPDEST SWAP4 SWAP3 POP POP POP JUMP JUMPDEST PUSH32 0x4E487B7100000000000000000000000000000000000000000000000000000000 PUSH0 MSTORE PUSH1 0x11 PUSH1 0x4 MSTORE PUSH1 0x24 PUSH0 REVERT JUMPDEST PUSH0 PUSH2 0x199 DUP3 PUSH2 0x10A JUMP JUMPDEST SWAP2 POP PUSH2 0x1A4 DUP4 PUSH2 0x10A JUMP JUMPDEST SWAP3 POP DUP3 DUP3 MUL PUSH2 0x1B2 DUP2 PUSH2 0x10A JUMP JUMPDEST SWAP2 POP DUP3 DUP3 DIV DUP5 EQ DUP4 ISZERO OR PUSH2 0x1C9 JUMPI PUSH2 0x1C8 PUSH2 0x162 JUMP JUMPDEST JUMPDEST POP SWAP3 SWAP2 POP POP JUMP JUMPDEST PUSH0 PUSH2 0x1DA DUP3 PUSH2 0x10A JUMP JUMPDEST SWAP2 POP PUSH2 0x1E5 DUP4 PUSH2 0x10A JUMP JUMPDEST SWAP3 POP DUP3 DUP3 ADD SWAP1 POP DUP1 DUP3 GT ISZERO PUSH2 0x1FD JUMPI PUSH2 0x1FC PUSH2 0x162 JUMP JUMPDEST JUMPDEST SWAP3 SWAP2 POP POP JUMP INVALID LOG2 PUSH5 0x6970667358 0x22 SLT KECCAK256 PREVRANDAO 0x27 DIV 0xFC 0xC7 XOR 0x27 SAR 0xE0 RETURN 0x2F 0xAF EXTCODESIZE 0xE3 0x1F 0xB8 DUP6 PUSH21 0x5C5DDD38946B215B100CE64BB67264736F6C634300 ADDMOD NOT STOP CALLER "
				},
				"gasEstimates": {
					"creation": {
						"codeDepositCost": "113800",
						"executionCost": "44368",
						"totalCost": "158168"
					},
					"external": {
						"calculateResults()": "infinite",
						"getResults()": "infinite",
						"num1()": "2446",
						"num2()": "2403"
					}
				},
				"methodIdentifiers": {
					"calculateResults()": "2ccb0d1e",
					"getResults()": "4717f97c",
					"num1()": "3b9eac4b",
					"num2()": "15d4266c"
				}
			},
			"storageLayout": {
				"storage": [
					{
						"astId": 4,
						"contract": "contracts/05ViewInSolidity.sol:View",
						"label": "num1",
						"offset": 0,
						"slot": "0",
						"type": "t_uint256"
					},
					{
						"astId": 7,
						"contract": "contracts/05ViewInSolidity.sol:View",
						"label": "num2",
						"offset": 0,
						"slot": "1",
						"type": "t_uint256"
					}
				],
				"types": {
					"t_uint256": {
						"encoding": "inplace",
						"label": "uint256",
						"numberOfBytes": "32"
					}
				}
			},
			"userdoc": {
				"kind": "user",
				"methods": {},
				"version": 1
			}
		}
	}
}