{
	"contracts/06PureInSolidity.sol": {
		"Pure": {
			"abi": [
				{
					"inputs": [],
					"name": "getData",
					"outputs": [
						{
							"internalType": "uint256",
							"name": "",
							"type": "uint256"
						},
						{
							"internalType": "uint256",
							"name": "",
							"type": "uint256"
						}
					],
					"stateMutability": "pure",
					"type": "function"
				}
			],
			"devdoc": {
				"kind": "dev",
				"methods": {},
				"version": 1
			},
			"evm": {
				"assembly": "    /* \"contracts/06PureInSolidity.sol\":71:443  contract Pure {... */\n  mstore(0x40, 0x80)\n    /* \"contracts/06PureInSolidity.sol\":107:108  4 */\n  0x04\n    /* \"contracts/06PureInSolidity.sol\":92:108  uint256 num1 = 4 */\n  0x00\n  sstore\n    /* \"contracts/06PureInSolidity.sol\":130:132  10 */\n  0x0a\n    /* \"contracts/06PureInSolidity.sol\":115:132  uint256 num2 = 10 */\n  0x01\n  sstore\n    /* \"contracts/06PureInSolidity.sol\":71:443  contract Pure {... */\n  callvalue\n  dup1\n  iszero\n  tag_1\n  jumpi\n  0x00\n  dup1\n  revert\ntag_1:\n  pop\n  dataSize(sub_0)\n  dup1\n  dataOffset(sub_0)\n  0x00\n  codecopy\n  0x00\n  return\nstop\n\nsub_0: assembly {\n        /* \"contracts/06PureInSolidity.sol\":71:443  contract Pure {... */\n      mstore(0x40, 0x80)\n      callvalue\n      dup1\n      iszero\n      tag_1\n      jumpi\n      0x00\n      dup1\n      revert\n    tag_1:\n      pop\n      jumpi(tag_2, lt(calldatasize, 0x04))\n      shr(0xe0, calldataload(0x00))\n      dup1\n      0x3bc5de30\n      eq\n      tag_3\n      jumpi\n    tag_2:\n      0x00\n      dup1\n      revert\n        /* \"contracts/06PureInSolidity.sol\":141:438  function getData() public pure   returns(uint256, uint256){... */\n    tag_3:\n      tag_4\n      tag_5\n      jump\t// in\n    tag_4:\n      mload(0x40)\n      tag_6\n      swap3\n      swap2\n      swap1\n      tag_7\n      jump\t// in\n    tag_6:\n      mload(0x40)\n      dup1\n      swap2\n      sub\n      swap1\n      return\n    tag_5:\n        /* \"contracts/06PureInSolidity.sol\":182:189  uint256 */\n      0x00\n        /* \"contracts/06PureInSolidity.sol\":191:198  uint256 */\n      dup1\n        /* \"contracts/06PureInSolidity.sol\":212:226  uint256 myNum1 */\n      0x00\n        /* \"contracts/06PureInSolidity.sol\":229:231  30 */\n      0x1e\n        /* \"contracts/06PureInSolidity.sol\":212:231  uint256 myNum1 = 30 */\n      swap1\n      pop\n        /* \"contracts/06PureInSolidity.sol\":242:256  uint256 myNum2 */\n      0x00\n        /* \"contracts/06PureInSolidity.sol\":259:261  50 */\n      0x32\n        /* \"contracts/06PureInSolidity.sol\":242:261  uint256 myNum2 = 50 */\n      swap1\n      pop\n        /* \"contracts/06PureInSolidity.sol\":279:285  myNum1 */\n      dup2\n        /* \"contracts/06PureInSolidity.sol\":286:292  myNum2 */\n      dup2\n        /* \"contracts/06PureInSolidity.sol\":272:293  return(myNum1,myNum2) */\n      swap4\n      pop\n      swap4\n      pop\n      pop\n      pop\n        /* \"contracts/06PureInSolidity.sol\":141:438  function getData() public pure   returns(uint256, uint256){... */\n      swap1\n      swap2\n      jump\t// out\n        /* \"#utility.yul\":7:84   */\n    tag_9:\n        /* \"#utility.yul\":44:51   */\n      0x00\n        /* \"#utility.yul\":73:78   */\n      dup2\n        /* \"#utility.yul\":62:78   */\n      swap1\n      pop\n        /* \"#utility.yul\":7:84   */\n      swap2\n      swap1\n      pop\n      jump\t// out\n        /* \"#utility.yul\":90:208   */\n    tag_10:\n        /* \"#utility.yul\":177:201   */\n      tag_14\n        /* \"#utility.yul\":195:200   */\n      dup2\n        /* \"#utility.yul\":177:201   */\n      tag_9\n      jump\t// in\n    tag_14:\n        /* \"#utility.yul\":172:175   */\n      dup3\n        /* \"#utility.yul\":165:202   */\n      mstore\n        /* \"#utility.yul\":90:208   */\n      pop\n      pop\n      jump\t// out\n        /* \"#utility.yul\":214:546   */\n    tag_7:\n        /* \"#utility.yul\":335:339   */\n      0x00\n        /* \"#utility.yul\":373:375   */\n      0x40\n        /* \"#utility.yul\":362:371   */\n      dup3\n        /* \"#utility.yul\":358:376   */\n      add\n        /* \"#utility.yul\":350:376   */\n      swap1\n      pop\n        /* \"#utility.yul\":386:457   */\n      tag_16\n        /* \"#utility.yul\":454:455   */\n      0x00\n        /* \"#utility.yul\":443:452   */\n      dup4\n        /* \"#utility.yul\":439:456   */\n      add\n        /* \"#utility.yul\":430:436   */\n      dup6\n        /* \"#utility.yul\":386:457   */\n      tag_10\n      jump\t// in\n    tag_16:\n        /* \"#utility.yul\":467:539   */\n      tag_17\n        /* \"#utility.yul\":535:537   */\n      0x20\n        /* \"#utility.yul\":524:533   */\n      dup4\n        /* \"#utility.yul\":520:538   */\n      add\n        /* \"#utility.yul\":511:517   */\n      dup5\n        /* \"#utility.yul\":467:539   */\n      tag_10\n      jump\t// in\n    tag_17:\n        /* \"#utility.yul\":214:546   */\n      swap4\n      swap3\n      pop\n      pop\n      pop\n      jump\t// out\n\n    auxdata: 0xa2646970667358221220d81ad42668f15ed2c342cb501d480f271146babbb95f6f75281032267ad2c82f64736f6c63430008190033\n}\n",
				"bytecode": {
					"linkReferences": {},
					"object": "608060405260045f55600a6001553480156017575f80fd5b5060cc8060235f395ff3fe6080604052348015600e575f80fd5b50600436106026575f3560e01c80633bc5de3014602a575b5f80fd5b60306045565b604051603c9291906073565b60405180910390f35b5f805f601e90505f6032905081819350935050509091565b5f819050919050565b606d81605d565b82525050565b5f60408201905060845f8301856066565b608f60208301846066565b939250505056fea2646970667358221220d81ad42668f15ed2c342cb501d480f271146babbb95f6f75281032267ad2c82f64736f6c63430008190033",
					"opcodes": "PUSH1 0x80 PUSH1 0x40 MSTORE PUSH1 0x4 PUSH0 SSTORE PUSH1 0xA PUSH1 0x1 SSTORE CALLVALUE DUP1 ISZERO PUSH1 0x17 JUMPI PUSH0 DUP1 REVERT JUMPDEST POP PUSH1 0xCC DUP1 PUSH1 0x23 PUSH0 CODECOPY PUSH0 RETURN INVALID PUSH1 0x80 PUSH1 0x40 MSTORE CALLVALUE DUP1 ISZERO PUSH1 0xE JUMPI PUSH0 DUP1 REVERT JUMPDEST POP PUSH1 0x4 CALLDATASIZE LT PUSH1 0x26 JUMPI PUSH0 CALLDATALOAD PUSH1 0xE0 SHR DUP1 PUSH4 0x3BC5DE30 EQ PUSH1 0x2A JUMPI JUMPDEST PUSH0 DUP1 REVERT JUMPDEST PUSH1 0x30 PUSH1 0x45 JUMP JUMPDEST PUSH1 0x40 MLOAD PUSH1 0x3C SWAP3 SWAP2 SWAP1 PUSH1 0x73 JUMP JUMPDEST PUSH1 0x40 MLOAD DUP1 SWAP2 SUB SWAP1 RETURN JUMPDEST PUSH0 DUP1 PUSH0 PUSH1 0x1E SWAP1 POP PUSH0 PUSH1 0x32 SWAP1 POP DUP2 DUP2 SWAP4 POP SWAP4 POP POP POP SWAP1 SWAP2 JUMP JUMPDEST PUSH0 DUP2 SWAP1 POP SWAP2 SWAP1 POP JUMP JUMPDEST PUSH1 0x6D DUP2 PUSH1 0x5D JUMP JUMPDEST DUP3 MSTORE POP POP JUMP JUMPDEST PUSH0 PUSH1 0x40 DUP3 ADD SWAP1 POP PUSH1 0x84 PUSH0 DUP4 ADD DUP6 PUSH1 0x66 JUMP JUMPDEST PUSH1 0x8F PUSH1 0x20 DUP4 ADD DUP5 PUSH1 0x66 JUMP JUMPDEST SWAP4 SWAP3 POP POP POP JUMP INVALID LOG2 PUSH5 0x6970667358 0x22 SLT KECCAK256 0xD8 BYTE 0xD4 0x26 PUSH9 0xF15ED2C342CB501D48 0xF 0x27 GT CHAINID 0xBA 0xBB 0xB9 PUSH0 PUSH16 0x75281032267AD2C82F64736F6C634300 ADDMOD NOT STOP CALLER "
				},
				"gasEstimates": {
					"creation": {
						"codeDepositCost": "40800",
						"executionCost": "44302",
						"totalCost": "85102"
					},
					"external": {
						"getData()": "infinite"
					}
				},
				"methodIdentifiers": {
					"getData()": "3bc5de30"
				}
			},
			"storageLayout": {
				"storage": [
					{
						"astId": 4,
						"contract": "contracts/06PureInSolidity.sol:Pure",
						"label": "num1",
						"offset": 0,
						"slot": "0",
						"type": "t_uint256"
					},
					{
						"astId": 7,
						"contract": "contracts/06PureInSolidity.sol:Pure",
						"label": "num2",
						"offset": 0,
						"slot": "1",
						"type": "t_uint256"
					}
				],
				"types": {
					"t_uint256": {
						"encoding": "inplace",
						"label": "uint256",
						"numberOfBytes": "32"
					}
				}
			},
			"userdoc": {
				"kind": "user",
				"methods": {},
				"version": 1
			}
		}
	}
}