{
	"contracts/04GlobalVariables.sol": {
		"MyContract": {
			"abi": [
				{
					"inputs": [],
					"stateMutability": "payable",
					"type": "constructor"
				},
				{
					"inputs": [],
					"name": "callData",
					"outputs": [
						{
							"internalType": "bytes",
							"name": "",
							"type": "bytes"
						}
					],
					"stateMutability": "view",
					"type": "function"
				},
				{
					"inputs": [],
					"name": "firstFour",
					"outputs": [
						{
							"internalType": "bytes4",
							"name": "",
							"type": "bytes4"
						}
					],
					"stateMutability": "view",
					"type": "function"
				},
				{
					"inputs": [],
					"name": "gasLimit",
					"outputs": [
						{
							"internalType": "uint256",
							"name": "",
							"type": "uint256"
						}
					],
					"stateMutability": "view",
					"type": "function"
				},
				{
					"inputs": [],
					"name": "gasPrice",
					"outputs": [
						{
							"internalType": "uint256",
							"name": "",
							"type": "uint256"
						}
					],
					"stateMutability": "view",
					"type": "function"
				},
				{
					"inputs": [],
					"name": "myBlockHash",
					"outputs": [
						{
							"internalType": "address",
							"name": "",
							"type": "address"
						}
					],
					"stateMutability": "view",
					"type": "function"
				},
				{
					"inputs": [],
					"name": "number",
					"outputs": [
						{
							"internalType": "uint256",
							"name": "",
							"type": "uint256"
						}
					],
					"stateMutability": "view",
					"type": "function"
				},
				{
					"inputs": [],
					"name": "origin",
					"outputs": [
						{
							"internalType": "address",
							"name": "",
							"type": "address"
						}
					],
					"stateMutability": "view",
					"type": "function"
				},
				{
					"inputs": [],
					"name": "owner",
					"outputs": [
						{
							"internalType": "address",
							"name": "",
							"type": "address"
						}
					],
					"stateMutability": "view",
					"type": "function"
				},
				{
					"inputs": [],
					"name": "prevRandao",
					"outputs": [
						{
							"internalType": "uint256",
							"name": "",
							"type": "uint256"
						}
					],
					"stateMutability": "view",
					"type": "function"
				},
				{
					"inputs": [],
					"name": "timeStamp",
					"outputs": [
						{
							"internalType": "uint256",
							"name": "",
							"type": "uint256"
						}
					],
					"stateMutability": "view",
					"type": "function"
				},
				{
					"inputs": [],
					"name": "value",
					"outputs": [
						{
							"internalType": "uint256",
							"name": "",
							"type": "uint256"
						}
					],
					"stateMutability": "view",
					"type": "function"
				}
			],
			"devdoc": {
				"kind": "dev",
				"methods": {},
				"version": 1
			},
			"evm": {
				"assembly": "    /* \"contracts/04GlobalVariables.sol\":1212:2034  contract MyContract {... */\n  mstore(0x40, 0x80)\n    /* \"contracts/04GlobalVariables.sol\":1633:1643  msg.sender */\n  caller\n    /* \"contracts/04GlobalVariables.sol\":1625:1630  owner */\n  0x00\n  dup1\n    /* \"contracts/04GlobalVariables.sol\":1625:1643  owner = msg.sender */\n  0x0100\n  exp\n  dup2\n  sload\n  dup2\n  0xffffffffffffffffffffffffffffffffffffffff\n  mul\n  not\n  and\n  swap1\n  dup4\n  0xffffffffffffffffffffffffffffffffffffffff\n  and\n  mul\n  or\n  swap1\n  sstore\n  pop\n    /* \"contracts/04GlobalVariables.sol\":1670:1684  block.coinbase */\n  coinbase\n    /* \"contracts/04GlobalVariables.sol\":1656:1667  myBlockHash */\n  0x01\n  0x00\n    /* \"contracts/04GlobalVariables.sol\":1656:1684  myBlockHash = block.coinbase */\n  0x0100\n  exp\n  dup2\n  sload\n  dup2\n  0xffffffffffffffffffffffffffffffffffffffff\n  mul\n  not\n  and\n  swap1\n  dup4\n  0xffffffffffffffffffffffffffffffffffffffff\n  and\n  mul\n  or\n  swap1\n  sstore\n  pop\n    /* \"contracts/04GlobalVariables.sol\":1789:1803  block.gaslimit */\n  gaslimit\n    /* \"contracts/04GlobalVariables.sol\":1778:1786  gasLimit */\n  0x03\n    /* \"contracts/04GlobalVariables.sol\":1778:1803  gasLimit = block.gaslimit */\n  dup2\n  swap1\n  sstore\n  pop\n    /* \"contracts/04GlobalVariables.sol\":1823:1835  block.number */\n  number\n    /* \"contracts/04GlobalVariables.sol\":1814:1820  number */\n  0x04\n    /* \"contracts/04GlobalVariables.sol\":1814:1835  number = block.number */\n  dup2\n  swap1\n  sstore\n  pop\n    /* \"contracts/04GlobalVariables.sol\":1858:1873  block.timestamp */\n  timestamp\n    /* \"contracts/04GlobalVariables.sol\":1846:1855  timeStamp */\n  0x05\n    /* \"contracts/04GlobalVariables.sol\":1846:1873  timeStamp = block.timestamp */\n  dup2\n  swap1\n  sstore\n  pop\n    /* \"contracts/04GlobalVariables.sol\":1892:1901  msg.value */\n  callvalue\n    /* \"contracts/04GlobalVariables.sol\":1884:1889  value */\n  0x06\n    /* \"contracts/04GlobalVariables.sol\":1884:1901  value = msg.value */\n  dup2\n  swap1\n  sstore\n  pop\n    /* \"contracts/04GlobalVariables.sol\":1921:1930  tx.origin */\n  origin\n    /* \"contracts/04GlobalVariables.sol\":1912:1918  origin */\n  0x07\n  0x00\n    /* \"contracts/04GlobalVariables.sol\":1912:1930  origin = tx.origin */\n  0x0100\n  exp\n  dup2\n  sload\n  dup2\n  0xffffffffffffffffffffffffffffffffffffffff\n  mul\n  not\n  and\n  swap1\n  dup4\n  0xffffffffffffffffffffffffffffffffffffffff\n  and\n  mul\n  or\n  swap1\n  sstore\n  pop\n    /* \"contracts/04GlobalVariables.sol\":1952:1963  tx.gasprice */\n  gasprice\n    /* \"contracts/04GlobalVariables.sol\":1941:1949  gasPrice */\n  0x08\n    /* \"contracts/04GlobalVariables.sol\":1941:1963  gasPrice = tx.gasprice */\n  dup2\n  swap1\n  sstore\n  pop\n    /* \"contracts/04GlobalVariables.sol\":1985:1993  msg.data */\n  0x00\n  calldatasize\n    /* \"contracts/04GlobalVariables.sol\":1974:1982  callData */\n  0x09\n    /* \"contracts/04GlobalVariables.sol\":1974:1993  callData = msg.data */\n  swap2\n  dup3\n  tag_3\n  swap3\n  swap2\n  swap1\n  tag_4\n  jump\t// in\ntag_3:\n  pop\n    /* \"contracts/04GlobalVariables.sol\":2016:2023  msg.sig */\n  and(0xffffffff00000000000000000000000000000000000000000000000000000000, calldataload(0x00))\n    /* \"contracts/04GlobalVariables.sol\":2004:2013  firstFour */\n  0x0a\n  0x00\n    /* \"contracts/04GlobalVariables.sol\":2004:2023  firstFour = msg.sig */\n  0x0100\n  exp\n  dup2\n  sload\n  dup2\n  0xffffffff\n  mul\n  not\n  and\n  swap1\n  dup4\n  0xe0\n  shr\n  mul\n  or\n  swap1\n  sstore\n  pop\n    /* \"contracts/04GlobalVariables.sol\":1212:2034  contract MyContract {... */\n  jump(tag_5)\n    /* \"#utility.yul\":7:103   */\ntag_6:\n    /* \"#utility.yul\":65:71   */\n  0x00\n    /* \"#utility.yul\":93:96   */\n  dup3\n    /* \"#utility.yul\":83:96   */\n  swap1\n  pop\n    /* \"#utility.yul\":7:103   */\n  swap3\n  swap2\n  pop\n  pop\n  jump\t// out\n    /* \"#utility.yul\":109:289   */\ntag_7:\n    /* \"#utility.yul\":157:234   */\n  0x4e487b7100000000000000000000000000000000000000000000000000000000\n    /* \"#utility.yul\":154:155   */\n  0x00\n    /* \"#utility.yul\":147:235   */\n  mstore\n    /* \"#utility.yul\":254:258   */\n  0x41\n    /* \"#utility.yul\":251:252   */\n  0x04\n    /* \"#utility.yul\":244:259   */\n  mstore\n    /* \"#utility.yul\":278:282   */\n  0x24\n    /* \"#utility.yul\":275:276   */\n  0x00\n    /* \"#utility.yul\":268:283   */\n  revert\n    /* \"#utility.yul\":295:475   */\ntag_8:\n    /* \"#utility.yul\":343:420   */\n  0x4e487b7100000000000000000000000000000000000000000000000000000000\n    /* \"#utility.yul\":340:341   */\n  0x00\n    /* \"#utility.yul\":333:421   */\n  mstore\n    /* \"#utility.yul\":440:444   */\n  0x22\n    /* \"#utility.yul\":437:438   */\n  0x04\n    /* \"#utility.yul\":430:445   */\n  mstore\n    /* \"#utility.yul\":464:468   */\n  0x24\n    /* \"#utility.yul\":461:462   */\n  0x00\n    /* \"#utility.yul\":454:469   */\n  revert\n    /* \"#utility.yul\":481:801   */\ntag_9:\n    /* \"#utility.yul\":525:531   */\n  0x00\n    /* \"#utility.yul\":562:563   */\n  0x02\n    /* \"#utility.yul\":556:560   */\n  dup3\n    /* \"#utility.yul\":552:564   */\n  div\n    /* \"#utility.yul\":542:564   */\n  swap1\n  pop\n    /* \"#utility.yul\":609:610   */\n  0x01\n    /* \"#utility.yul\":603:607   */\n  dup3\n    /* \"#utility.yul\":599:611   */\n  and\n    /* \"#utility.yul\":630:648   */\n  dup1\n    /* \"#utility.yul\":620:701   */\n  tag_31\n  jumpi\n    /* \"#utility.yul\":686:690   */\n  0x7f\n    /* \"#utility.yul\":678:684   */\n  dup3\n    /* \"#utility.yul\":674:691   */\n  and\n    /* \"#utility.yul\":664:691   */\n  swap2\n  pop\n    /* \"#utility.yul\":620:701   */\ntag_31:\n    /* \"#utility.yul\":748:750   */\n  0x20\n    /* \"#utility.yul\":740:746   */\n  dup3\n    /* \"#utility.yul\":737:751   */\n  lt\n    /* \"#utility.yul\":717:735   */\n  dup2\n    /* \"#utility.yul\":714:752   */\n  sub\n    /* \"#utility.yul\":711:795   */\n  tag_32\n  jumpi\n    /* \"#utility.yul\":767:785   */\n  tag_33\n  tag_8\n  jump\t// in\ntag_33:\n    /* \"#utility.yul\":711:795   */\ntag_32:\n    /* \"#utility.yul\":532:801   */\n  pop\n    /* \"#utility.yul\":481:801   */\n  swap2\n  swap1\n  pop\n  jump\t// out\n    /* \"#utility.yul\":807:947   */\ntag_10:\n    /* \"#utility.yul\":855:859   */\n  0x00\n    /* \"#utility.yul\":878:881   */\n  dup2\n    /* \"#utility.yul\":870:881   */\n  swap1\n  pop\n    /* \"#utility.yul\":901:904   */\n  dup2\n    /* \"#utility.yul\":898:899   */\n  0x00\n    /* \"#utility.yul\":891:905   */\n  mstore\n    /* \"#utility.yul\":935:939   */\n  0x20\n    /* \"#utility.yul\":932:933   */\n  0x00\n    /* \"#utility.yul\":922:940   */\n  keccak256\n    /* \"#utility.yul\":914:940   */\n  swap1\n  pop\n    /* \"#utility.yul\":807:947   */\n  swap2\n  swap1\n  pop\n  jump\t// out\n    /* \"#utility.yul\":953:1046   */\ntag_11:\n    /* \"#utility.yul\":990:996   */\n  0x00\n    /* \"#utility.yul\":1037:1039   */\n  0x20\n    /* \"#utility.yul\":1032:1034   */\n  0x1f\n    /* \"#utility.yul\":1025:1030   */\n  dup4\n    /* \"#utility.yul\":1021:1035   */\n  add\n    /* \"#utility.yul\":1017:1040   */\n  div\n    /* \"#utility.yul\":1007:1040   */\n  swap1\n  pop\n    /* \"#utility.yul\":953:1046   */\n  swap2\n  swap1\n  pop\n  jump\t// out\n    /* \"#utility.yul\":1052:1159   */\ntag_12:\n    /* \"#utility.yul\":1096:1104   */\n  0x00\n    /* \"#utility.yul\":1146:1151   */\n  dup3\n    /* \"#utility.yul\":1140:1144   */\n  dup3\n    /* \"#utility.yul\":1136:1152   */\n  shl\n    /* \"#utility.yul\":1115:1152   */\n  swap1\n  pop\n    /* \"#utility.yul\":1052:1159   */\n  swap3\n  swap2\n  pop\n  pop\n  jump\t// out\n    /* \"#utility.yul\":1165:1558   */\ntag_13:\n    /* \"#utility.yul\":1234:1240   */\n  0x00\n    /* \"#utility.yul\":1284:1285   */\n  0x08\n    /* \"#utility.yul\":1272:1282   */\n  dup4\n    /* \"#utility.yul\":1268:1286   */\n  mul\n    /* \"#utility.yul\":1307:1404   */\n  tag_38\n    /* \"#utility.yul\":1337:1403   */\n  0xffffffffffffffffffffffffffffffffffffffffffffffffffffffffffffffff\n    /* \"#utility.yul\":1326:1335   */\n  dup3\n    /* \"#utility.yul\":1307:1404   */\n  tag_12\n  jump\t// in\ntag_38:\n    /* \"#utility.yul\":1425:1464   */\n  tag_39\n    /* \"#utility.yul\":1455:1463   */\n  dup7\n    /* \"#utility.yul\":1444:1453   */\n  dup4\n    /* \"#utility.yul\":1425:1464   */\n  tag_12\n  jump\t// in\ntag_39:\n    /* \"#utility.yul\":1413:1464   */\n  swap6\n  pop\n    /* \"#utility.yul\":1497:1501   */\n  dup1\n    /* \"#utility.yul\":1493:1502   */\n  not\n    /* \"#utility.yul\":1486:1491   */\n  dup5\n    /* \"#utility.yul\":1482:1503   */\n  and\n    /* \"#utility.yul\":1473:1503   */\n  swap4\n  pop\n    /* \"#utility.yul\":1546:1550   */\n  dup1\n    /* \"#utility.yul\":1536:1544   */\n  dup7\n    /* \"#utility.yul\":1532:1551   */\n  and\n    /* \"#utility.yul\":1525:1530   */\n  dup5\n    /* \"#utility.yul\":1522:1552   */\n  or\n    /* \"#utility.yul\":1512:1552   */\n  swap3\n  pop\n    /* \"#utility.yul\":1241:1558   */\n  pop\n  pop\n    /* \"#utility.yul\":1165:1558   */\n  swap4\n  swap3\n  pop\n  pop\n  pop\n  jump\t// out\n    /* \"#utility.yul\":1564:1641   */\ntag_14:\n    /* \"#utility.yul\":1601:1608   */\n  0x00\n    /* \"#utility.yul\":1630:1635   */\n  dup2\n    /* \"#utility.yul\":1619:1635   */\n  swap1\n  pop\n    /* \"#utility.yul\":1564:1641   */\n  swap2\n  swap1\n  pop\n  jump\t// out\n    /* \"#utility.yul\":1647:1707   */\ntag_15:\n    /* \"#utility.yul\":1675:1678   */\n  0x00\n    /* \"#utility.yul\":1696:1701   */\n  dup2\n    /* \"#utility.yul\":1689:1701   */\n  swap1\n  pop\n    /* \"#utility.yul\":1647:1707   */\n  swap2\n  swap1\n  pop\n  jump\t// out\n    /* \"#utility.yul\":1713:1855   */\ntag_16:\n    /* \"#utility.yul\":1763:1772   */\n  0x00\n    /* \"#utility.yul\":1796:1849   */\n  tag_43\n    /* \"#utility.yul\":1814:1848   */\n  tag_44\n    /* \"#utility.yul\":1823:1847   */\n  tag_45\n    /* \"#utility.yul\":1841:1846   */\n  dup5\n    /* \"#utility.yul\":1823:1847   */\n  tag_14\n  jump\t// in\ntag_45:\n    /* \"#utility.yul\":1814:1848   */\n  tag_15\n  jump\t// in\ntag_44:\n    /* \"#utility.yul\":1796:1849   */\n  tag_14\n  jump\t// in\ntag_43:\n    /* \"#utility.yul\":1783:1849   */\n  swap1\n  pop\n    /* \"#utility.yul\":1713:1855   */\n  swap2\n  swap1\n  pop\n  jump\t// out\n    /* \"#utility.yul\":1861:1936   */\ntag_17:\n    /* \"#utility.yul\":1904:1907   */\n  0x00\n    /* \"#utility.yul\":1925:1930   */\n  dup2\n    /* \"#utility.yul\":1918:1930   */\n  swap1\n  pop\n    /* \"#utility.yul\":1861:1936   */\n  swap2\n  swap1\n  pop\n  jump\t// out\n    /* \"#utility.yul\":1942:2211   */\ntag_18:\n    /* \"#utility.yul\":2052:2091   */\n  tag_48\n    /* \"#utility.yul\":2083:2090   */\n  dup4\n    /* \"#utility.yul\":2052:2091   */\n  tag_16\n  jump\t// in\ntag_48:\n    /* \"#utility.yul\":2113:2204   */\n  tag_49\n    /* \"#utility.yul\":2162:2203   */\n  tag_50\n    /* \"#utility.yul\":2186:2202   */\n  dup3\n    /* \"#utility.yul\":2162:2203   */\n  tag_17\n  jump\t// in\ntag_50:\n    /* \"#utility.yul\":2154:2160   */\n  dup5\n    /* \"#utility.yul\":2147:2151   */\n  dup5\n    /* \"#utility.yul\":2141:2152   */\n  sload\n    /* \"#utility.yul\":2113:2204   */\n  tag_13\n  jump\t// in\ntag_49:\n    /* \"#utility.yul\":2107:2111   */\n  dup3\n    /* \"#utility.yul\":2100:2205   */\n  sstore\n    /* \"#utility.yul\":2018:2211   */\n  pop\n    /* \"#utility.yul\":1942:2211   */\n  pop\n  pop\n  pop\n  jump\t// out\n    /* \"#utility.yul\":2217:2290   */\ntag_19:\n    /* \"#utility.yul\":2262:2265   */\n  0x00\n    /* \"#utility.yul\":2217:2290   */\n  swap1\n  jump\t// out\n    /* \"#utility.yul\":2296:2485   */\ntag_20:\n    /* \"#utility.yul\":2373:2405   */\n  tag_53\n  tag_19\n  jump\t// in\ntag_53:\n    /* \"#utility.yul\":2414:2479   */\n  tag_54\n    /* \"#utility.yul\":2472:2478   */\n  dup2\n    /* \"#utility.yul\":2464:2470   */\n  dup5\n    /* \"#utility.yul\":2458:2462   */\n  dup5\n    /* \"#utility.yul\":2414:2479   */\n  tag_18\n  jump\t// in\ntag_54:\n    /* \"#utility.yul\":2349:2485   */\n  pop\n    /* \"#utility.yul\":2296:2485   */\n  pop\n  pop\n  jump\t// out\n    /* \"#utility.yul\":2491:2677   */\ntag_21:\n    /* \"#utility.yul\":2551:2671   */\ntag_56:\n    /* \"#utility.yul\":2568:2571   */\n  dup2\n    /* \"#utility.yul\":2561:2566   */\n  dup2\n    /* \"#utility.yul\":2558:2572   */\n  lt\n    /* \"#utility.yul\":2551:2671   */\n  iszero\n  tag_58\n  jumpi\n    /* \"#utility.yul\":2622:2661   */\n  tag_59\n    /* \"#utility.yul\":2659:2660   */\n  0x00\n    /* \"#utility.yul\":2652:2657   */\n  dup3\n    /* \"#utility.yul\":2622:2661   */\n  tag_20\n  jump\t// in\ntag_59:\n    /* \"#utility.yul\":2595:2596   */\n  0x01\n    /* \"#utility.yul\":2588:2593   */\n  dup2\n    /* \"#utility.yul\":2584:2597   */\n  add\n    /* \"#utility.yul\":2575:2597   */\n  swap1\n  pop\n    /* \"#utility.yul\":2551:2671   */\n  jump(tag_56)\ntag_58:\n    /* \"#utility.yul\":2491:2677   */\n  pop\n  pop\n  jump\t// out\n    /* \"#utility.yul\":2683:3224   */\ntag_22:\n    /* \"#utility.yul\":2783:2785   */\n  0x1f\n    /* \"#utility.yul\":2778:2781   */\n  dup3\n    /* \"#utility.yul\":2775:2786   */\n  gt\n    /* \"#utility.yul\":2772:3217   */\n  iszero\n  tag_61\n  jumpi\n    /* \"#utility.yul\":2817:2854   */\n  tag_62\n    /* \"#utility.yul\":2848:2853   */\n  dup2\n    /* \"#utility.yul\":2817:2854   */\n  tag_10\n  jump\t// in\ntag_62:\n    /* \"#utility.yul\":2900:2929   */\n  tag_63\n    /* \"#utility.yul\":2918:2928   */\n  dup5\n    /* \"#utility.yul\":2900:2929   */\n  tag_11\n  jump\t// in\ntag_63:\n    /* \"#utility.yul\":2890:2898   */\n  dup2\n    /* \"#utility.yul\":2886:2930   */\n  add\n    /* \"#utility.yul\":3083:3085   */\n  0x20\n    /* \"#utility.yul\":3071:3081   */\n  dup6\n    /* \"#utility.yul\":3068:3086   */\n  lt\n    /* \"#utility.yul\":3065:3114   */\n  iszero\n  tag_64\n  jumpi\n    /* \"#utility.yul\":3104:3112   */\n  dup2\n    /* \"#utility.yul\":3089:3112   */\n  swap1\n  pop\n    /* \"#utility.yul\":3065:3114   */\ntag_64:\n    /* \"#utility.yul\":3127:3207   */\n  tag_65\n    /* \"#utility.yul\":3183:3205   */\n  tag_66\n    /* \"#utility.yul\":3201:3204   */\n  dup6\n    /* \"#utility.yul\":3183:3205   */\n  tag_11\n  jump\t// in\ntag_66:\n    /* \"#utility.yul\":3173:3181   */\n  dup4\n    /* \"#utility.yul\":3169:3206   */\n  add\n    /* \"#utility.yul\":3156:3167   */\n  dup3\n    /* \"#utility.yul\":3127:3207   */\n  tag_21\n  jump\t// in\ntag_65:\n    /* \"#utility.yul\":2787:3217   */\n  pop\n  pop\n    /* \"#utility.yul\":2772:3217   */\ntag_61:\n    /* \"#utility.yul\":2683:3224   */\n  pop\n  pop\n  pop\n  jump\t// out\n    /* \"#utility.yul\":3230:3347   */\ntag_23:\n    /* \"#utility.yul\":3284:3292   */\n  0x00\n    /* \"#utility.yul\":3334:3339   */\n  dup3\n    /* \"#utility.yul\":3328:3332   */\n  dup3\n    /* \"#utility.yul\":3324:3340   */\n  shr\n    /* \"#utility.yul\":3303:3340   */\n  swap1\n  pop\n    /* \"#utility.yul\":3230:3347   */\n  swap3\n  swap2\n  pop\n  pop\n  jump\t// out\n    /* \"#utility.yul\":3353:3522   */\ntag_24:\n    /* \"#utility.yul\":3397:3403   */\n  0x00\n    /* \"#utility.yul\":3430:3481   */\n  tag_69\n    /* \"#utility.yul\":3478:3479   */\n  0x00\n    /* \"#utility.yul\":3474:3480   */\n  not\n    /* \"#utility.yul\":3466:3471   */\n  dup5\n    /* \"#utility.yul\":3463:3464   */\n  0x08\n    /* \"#utility.yul\":3459:3472   */\n  mul\n    /* \"#utility.yul\":3430:3481   */\n  tag_23\n  jump\t// in\ntag_69:\n    /* \"#utility.yul\":3426:3482   */\n  not\n    /* \"#utility.yul\":3511:3515   */\n  dup1\n    /* \"#utility.yul\":3505:3509   */\n  dup4\n    /* \"#utility.yul\":3501:3516   */\n  and\n    /* \"#utility.yul\":3491:3516   */\n  swap2\n  pop\n    /* \"#utility.yul\":3404:3522   */\n  pop\n    /* \"#utility.yul\":3353:3522   */\n  swap3\n  swap2\n  pop\n  pop\n  jump\t// out\n    /* \"#utility.yul\":3527:3822   */\ntag_25:\n    /* \"#utility.yul\":3603:3607   */\n  0x00\n    /* \"#utility.yul\":3749:3778   */\n  tag_71\n    /* \"#utility.yul\":3774:3777   */\n  dup4\n    /* \"#utility.yul\":3768:3772   */\n  dup4\n    /* \"#utility.yul\":3749:3778   */\n  tag_24\n  jump\t// in\ntag_71:\n    /* \"#utility.yul\":3741:3778   */\n  swap2\n  pop\n    /* \"#utility.yul\":3811:3814   */\n  dup3\n    /* \"#utility.yul\":3808:3809   */\n  0x02\n    /* \"#utility.yul\":3804:3815   */\n  mul\n    /* \"#utility.yul\":3798:3802   */\n  dup3\n    /* \"#utility.yul\":3795:3816   */\n  or\n    /* \"#utility.yul\":3787:3816   */\n  swap1\n  pop\n    /* \"#utility.yul\":3527:3822   */\n  swap3\n  swap2\n  pop\n  pop\n  jump\t// out\n    /* \"#utility.yul\":3827:5225   */\ntag_4:\n    /* \"#utility.yul\":3949:3992   */\n  tag_73\n    /* \"#utility.yul\":3988:3991   */\n  dup4\n    /* \"#utility.yul\":3983:3986   */\n  dup4\n    /* \"#utility.yul\":3949:3992   */\n  tag_6\n  jump\t// in\ntag_73:\n    /* \"#utility.yul\":4057:4075   */\n  0xffffffffffffffff\n    /* \"#utility.yul\":4049:4055   */\n  dup2\n    /* \"#utility.yul\":4046:4076   */\n  gt\n    /* \"#utility.yul\":4043:4099   */\n  iszero\n  tag_74\n  jumpi\n    /* \"#utility.yul\":4079:4097   */\n  tag_75\n  tag_7\n  jump\t// in\ntag_75:\n    /* \"#utility.yul\":4043:4099   */\ntag_74:\n    /* \"#utility.yul\":4123:4161   */\n  tag_76\n    /* \"#utility.yul\":4155:4159   */\n  dup3\n    /* \"#utility.yul\":4149:4160   */\n  sload\n    /* \"#utility.yul\":4123:4161   */\n  tag_9\n  jump\t// in\ntag_76:\n    /* \"#utility.yul\":4208:4274   */\n  tag_77\n    /* \"#utility.yul\":4267:4273   */\n  dup3\n    /* \"#utility.yul\":4259:4265   */\n  dup3\n    /* \"#utility.yul\":4253:4257   */\n  dup6\n    /* \"#utility.yul\":4208:4274   */\n  tag_22\n  jump\t// in\ntag_77:\n    /* \"#utility.yul\":4301:4302   */\n  0x00\n    /* \"#utility.yul\":4330:4332   */\n  0x1f\n    /* \"#utility.yul\":4322:4328   */\n  dup4\n    /* \"#utility.yul\":4319:4333   */\n  gt\n    /* \"#utility.yul\":4347:4348   */\n  0x01\n    /* \"#utility.yul\":4342:4973   */\n  dup2\n  eq\n  tag_79\n  jumpi\n    /* \"#utility.yul\":5017:5018   */\n  0x00\n    /* \"#utility.yul\":5034:5040   */\n  dup5\n    /* \"#utility.yul\":5031:5115   */\n  iszero\n  tag_80\n  jumpi\n    /* \"#utility.yul\":5090:5099   */\n  dup3\n    /* \"#utility.yul\":5085:5088   */\n  dup8\n    /* \"#utility.yul\":5081:5100   */\n  add\n    /* \"#utility.yul\":5068:5101   */\n  calldataload\n    /* \"#utility.yul\":5059:5101   */\n  swap1\n  pop\n    /* \"#utility.yul\":5031:5115   */\ntag_80:\n    /* \"#utility.yul\":5141:5208   */\n  tag_81\n    /* \"#utility.yul\":5201:5207   */\n  dup6\n    /* \"#utility.yul\":5194:5199   */\n  dup3\n    /* \"#utility.yul\":5141:5208   */\n  tag_25\n  jump\t// in\ntag_81:\n    /* \"#utility.yul\":5135:5139   */\n  dup7\n    /* \"#utility.yul\":5128:5209   */\n  sstore\n    /* \"#utility.yul\":4990:5219   */\n  pop\n    /* \"#utility.yul\":4312:5219   */\n  jump(tag_78)\n    /* \"#utility.yul\":4342:4973   */\ntag_79:\n    /* \"#utility.yul\":4394:4398   */\n  0x1f\n    /* \"#utility.yul\":4390:4399   */\n  not\n    /* \"#utility.yul\":4382:4388   */\n  dup5\n    /* \"#utility.yul\":4378:4400   */\n  and\n    /* \"#utility.yul\":4428:4464   */\n  tag_82\n    /* \"#utility.yul\":4459:4463   */\n  dup7\n    /* \"#utility.yul\":4428:4464   */\n  tag_10\n  jump\t// in\ntag_82:\n    /* \"#utility.yul\":4486:4487   */\n  0x00\n    /* \"#utility.yul\":4500:4715   */\ntag_83:\n    /* \"#utility.yul\":4514:4521   */\n  dup3\n    /* \"#utility.yul\":4511:4512   */\n  dup2\n    /* \"#utility.yul\":4508:4522   */\n  lt\n    /* \"#utility.yul\":4500:4715   */\n  iszero\n  tag_85\n  jumpi\n    /* \"#utility.yul\":4600:4609   */\n  dup5\n    /* \"#utility.yul\":4595:4598   */\n  dup10\n    /* \"#utility.yul\":4591:4610   */\n  add\n    /* \"#utility.yul\":4578:4611   */\n  calldataload\n    /* \"#utility.yul\":4570:4576   */\n  dup3\n    /* \"#utility.yul\":4563:4612   */\n  sstore\n    /* \"#utility.yul\":4651:4652   */\n  0x01\n    /* \"#utility.yul\":4643:4649   */\n  dup3\n    /* \"#utility.yul\":4639:4653   */\n  add\n    /* \"#utility.yul\":4629:4653   */\n  swap2\n  pop\n    /* \"#utility.yul\":4698:4700   */\n  0x20\n    /* \"#utility.yul\":4687:4696   */\n  dup6\n    /* \"#utility.yul\":4683:4701   */\n  add\n    /* \"#utility.yul\":4670:4701   */\n  swap5\n  pop\n    /* \"#utility.yul\":4537:4541   */\n  0x20\n    /* \"#utility.yul\":4534:4535   */\n  dup2\n    /* \"#utility.yul\":4530:4542   */\n  add\n    /* \"#utility.yul\":4525:4542   */\n  swap1\n  pop\n    /* \"#utility.yul\":4500:4715   */\n  jump(tag_83)\ntag_85:\n    /* \"#utility.yul\":4743:4749   */\n  dup7\n    /* \"#utility.yul\":4734:4741   */\n  dup4\n    /* \"#utility.yul\":4731:4750   */\n  lt\n    /* \"#utility.yul\":4728:4914   */\n  iszero\n  tag_86\n  jumpi\n    /* \"#utility.yul\":4808:4817   */\n  dup5\n    /* \"#utility.yul\":4803:4806   */\n  dup10\n    /* \"#utility.yul\":4799:4818   */\n  add\n    /* \"#utility.yul\":4786:4819   */\n  calldataload\n    /* \"#utility.yul\":4851:4899   */\n  tag_87\n    /* \"#utility.yul\":4893:4897   */\n  0x1f\n    /* \"#utility.yul\":4885:4891   */\n  dup10\n    /* \"#utility.yul\":4881:4898   */\n  and\n    /* \"#utility.yul\":4870:4879   */\n  dup3\n    /* \"#utility.yul\":4851:4899   */\n  tag_24\n  jump\t// in\ntag_87:\n    /* \"#utility.yul\":4843:4849   */\n  dup4\n    /* \"#utility.yul\":4836:4900   */\n  sstore\n    /* \"#utility.yul\":4751:4914   */\n  pop\n    /* \"#utility.yul\":4728:4914   */\ntag_86:\n    /* \"#utility.yul\":4960:4961   */\n  0x01\n    /* \"#utility.yul\":4956:4957   */\n  0x02\n    /* \"#utility.yul\":4948:4954   */\n  dup9\n    /* \"#utility.yul\":4944:4958   */\n  mul\n    /* \"#utility.yul\":4940:4962   */\n  add\n    /* \"#utility.yul\":4934:4938   */\n  dup9\n    /* \"#utility.yul\":4927:4963   */\n  sstore\n    /* \"#utility.yul\":4349:4973   */\n  pop\n  pop\n  pop\n    /* \"#utility.yul\":4312:5219   */\ntag_78:\n  pop\n    /* \"#utility.yul\":3924:5225   */\n  pop\n  pop\n  pop\n    /* \"#utility.yul\":3827:5225   */\n  pop\n  pop\n  pop\n  jump\t// out\n    /* \"contracts/04GlobalVariables.sol\":1212:2034  contract MyContract {... */\ntag_5:\n  dataSize(sub_0)\n  dup1\n  dataOffset(sub_0)\n  0x00\n  codecopy\n  0x00\n  return\nstop\n\nsub_0: assembly {\n        /* \"contracts/04GlobalVariables.sol\":1212:2034  contract MyContract {... */\n      mstore(0x40, 0x80)\n      callvalue\n      dup1\n      iszero\n      tag_1\n      jumpi\n      0x00\n      dup1\n      revert\n    tag_1:\n      pop\n      jumpi(tag_2, lt(calldatasize, 0x04))\n      shr(0xe0, calldataload(0x00))\n      dup1\n      0x8da5cb5b\n      gt\n      tag_14\n      jumpi\n      dup1\n      0x8da5cb5b\n      eq\n      tag_8\n      jumpi\n      dup1\n      0x938b5f32\n      eq\n      tag_9\n      jumpi\n      dup1\n      0xe25ccbe7\n      eq\n      tag_10\n      jumpi\n      dup1\n      0xf68016b7\n      eq\n      tag_11\n      jumpi\n      dup1\n      0xfd6e98c4\n      eq\n      tag_12\n      jumpi\n      dup1\n      0xfe173b97\n      eq\n      tag_13\n      jumpi\n      jump(tag_2)\n    tag_14:\n      dup1\n      0x0ab0df87\n      eq\n      tag_3\n      jumpi\n      dup1\n      0x30e284df\n      eq\n      tag_4\n      jumpi\n      dup1\n      0x3fa4f245\n      eq\n      tag_5\n      jumpi\n      dup1\n      0x4e417a98\n      eq\n      tag_6\n      jumpi\n      dup1\n      0x8381f58a\n      eq\n      tag_7\n      jumpi\n    tag_2:\n      0x00\n      dup1\n      revert\n        /* \"contracts/04GlobalVariables.sol\":1416:1440  uint256 public timeStamp */\n    tag_3:\n      tag_15\n      tag_16\n      jump\t// in\n    tag_15:\n      mload(0x40)\n      tag_17\n      swap2\n      swap1\n      tag_18\n      jump\t// in\n    tag_17:\n      mload(0x40)\n      dup1\n      swap2\n      sub\n      swap1\n      return\n        /* \"contracts/04GlobalVariables.sol\":1266:1292  address public myBlockHash */\n    tag_4:\n      tag_19\n      tag_20\n      jump\t// in\n    tag_19:\n      mload(0x40)\n      tag_21\n      swap2\n      swap1\n      tag_22\n      jump\t// in\n    tag_21:\n      mload(0x40)\n      dup1\n      swap2\n      sub\n      swap1\n      return\n        /* \"contracts/04GlobalVariables.sol\":1447:1467  uint256 public value */\n    tag_5:\n      tag_23\n      tag_24\n      jump\t// in\n    tag_23:\n      mload(0x40)\n      tag_25\n      swap2\n      swap1\n      tag_18\n      jump\t// in\n    tag_25:\n      mload(0x40)\n      dup1\n      swap2\n      sub\n      swap1\n      return\n        /* \"contracts/04GlobalVariables.sol\":1532:1553  bytes public callData */\n    tag_6:\n      tag_26\n      tag_27\n      jump\t// in\n    tag_26:\n      mload(0x40)\n      tag_28\n      swap2\n      swap1\n      tag_29\n      jump\t// in\n    tag_28:\n      mload(0x40)\n      dup1\n      swap2\n      sub\n      swap1\n      return\n        /* \"contracts/04GlobalVariables.sol\":1388:1409  uint256 public number */\n    tag_7:\n      tag_30\n      tag_31\n      jump\t// in\n    tag_30:\n      mload(0x40)\n      tag_32\n      swap2\n      swap1\n      tag_18\n      jump\t// in\n    tag_32:\n      mload(0x40)\n      dup1\n      swap2\n      sub\n      swap1\n      return\n        /* \"contracts/04GlobalVariables.sol\":1239:1259  address public owner */\n    tag_8:\n      tag_33\n      tag_34\n      jump\t// in\n    tag_33:\n      mload(0x40)\n      tag_35\n      swap2\n      swap1\n      tag_22\n      jump\t// in\n    tag_35:\n      mload(0x40)\n      dup1\n      swap2\n      sub\n      swap1\n      return\n        /* \"contracts/04GlobalVariables.sol\":1474:1495  address public origin */\n    tag_9:\n      tag_36\n      tag_37\n      jump\t// in\n    tag_36:\n      mload(0x40)\n      tag_38\n      swap2\n      swap1\n      tag_22\n      jump\t// in\n    tag_38:\n      mload(0x40)\n      dup1\n      swap2\n      sub\n      swap1\n      return\n        /* \"contracts/04GlobalVariables.sol\":1560:1583  bytes4 public firstFour */\n    tag_10:\n      tag_39\n      tag_40\n      jump\t// in\n    tag_39:\n      mload(0x40)\n      tag_41\n      swap2\n      swap1\n      tag_42\n      jump\t// in\n    tag_41:\n      mload(0x40)\n      dup1\n      swap2\n      sub\n      swap1\n      return\n        /* \"contracts/04GlobalVariables.sol\":1358:1381  uint256 public gasLimit */\n    tag_11:\n      tag_43\n      tag_44\n      jump\t// in\n    tag_43:\n      mload(0x40)\n      tag_45\n      swap2\n      swap1\n      tag_18\n      jump\t// in\n    tag_45:\n      mload(0x40)\n      dup1\n      swap2\n      sub\n      swap1\n      return\n        /* \"contracts/04GlobalVariables.sol\":1299:1324  uint256 public prevRandao */\n    tag_12:\n      tag_46\n      tag_47\n      jump\t// in\n    tag_46:\n      mload(0x40)\n      tag_48\n      swap2\n      swap1\n      tag_18\n      jump\t// in\n    tag_48:\n      mload(0x40)\n      dup1\n      swap2\n      sub\n      swap1\n      return\n        /* \"contracts/04GlobalVariables.sol\":1502:1525  uint256 public gasPrice */\n    tag_13:\n      tag_49\n      tag_50\n      jump\t// in\n    tag_49:\n      mload(0x40)\n      tag_51\n      swap2\n      swap1\n      tag_18\n      jump\t// in\n    tag_51:\n      mload(0x40)\n      dup1\n      swap2\n      sub\n      swap1\n      return\n        /* \"contracts/04GlobalVariables.sol\":1416:1440  uint256 public timeStamp */\n    tag_16:\n      sload(0x05)\n      dup2\n      jump\t// out\n        /* \"contracts/04GlobalVariables.sol\":1266:1292  address public myBlockHash */\n    tag_20:\n      0x01\n      0x00\n      swap1\n      sload\n      swap1\n      0x0100\n      exp\n      swap1\n      div\n      0xffffffffffffffffffffffffffffffffffffffff\n      and\n      dup2\n      jump\t// out\n        /* \"contracts/04GlobalVariables.sol\":1447:1467  uint256 public value */\n    tag_24:\n      sload(0x06)\n      dup2\n      jump\t// out\n        /* \"contracts/04GlobalVariables.sol\":1532:1553  bytes public callData */\n    tag_27:\n      0x09\n      dup1\n      sload\n      tag_52\n      swap1\n      tag_53\n      jump\t// in\n    tag_52:\n      dup1\n      0x1f\n      add\n      0x20\n      dup1\n      swap2\n      div\n      mul\n      0x20\n      add\n      mload(0x40)\n      swap1\n      dup2\n      add\n      0x40\n      mstore\n      dup1\n      swap3\n      swap2\n      swap1\n      dup2\n      dup2\n      mstore\n      0x20\n      add\n      dup3\n      dup1\n      sload\n      tag_54\n      swap1\n      tag_53\n      jump\t// in\n    tag_54:\n      dup1\n      iszero\n      tag_55\n      jumpi\n      dup1\n      0x1f\n      lt\n      tag_56\n      jumpi\n      0x0100\n      dup1\n      dup4\n      sload\n      div\n      mul\n      dup4\n      mstore\n      swap2\n      0x20\n      add\n      swap2\n      jump(tag_55)\n    tag_56:\n      dup3\n      add\n      swap2\n      swap1\n      0x00\n      mstore\n      keccak256(0x00, 0x20)\n      swap1\n    tag_57:\n      dup2\n      sload\n      dup2\n      mstore\n      swap1\n      0x01\n      add\n      swap1\n      0x20\n      add\n      dup1\n      dup4\n      gt\n      tag_57\n      jumpi\n      dup3\n      swap1\n      sub\n      0x1f\n      and\n      dup3\n      add\n      swap2\n    tag_55:\n      pop\n      pop\n      pop\n      pop\n      pop\n      dup2\n      jump\t// out\n        /* \"contracts/04GlobalVariables.sol\":1388:1409  uint256 public number */\n    tag_31:\n      sload(0x04)\n      dup2\n      jump\t// out\n        /* \"contracts/04GlobalVariables.sol\":1239:1259  address public owner */\n    tag_34:\n      0x00\n      dup1\n      sload\n      swap1\n      0x0100\n      exp\n      swap1\n      div\n      0xffffffffffffffffffffffffffffffffffffffff\n      and\n      dup2\n      jump\t// out\n        /* \"contracts/04GlobalVariables.sol\":1474:1495  address public origin */\n    tag_37:\n      0x07\n      0x00\n      swap1\n      sload\n      swap1\n      0x0100\n      exp\n      swap1\n      div\n      0xffffffffffffffffffffffffffffffffffffffff\n      and\n      dup2\n      jump\t// out\n        /* \"contracts/04GlobalVariables.sol\":1560:1583  bytes4 public firstFour */\n    tag_40:\n      0x0a\n      0x00\n      swap1\n      sload\n      swap1\n      0x0100\n      exp\n      swap1\n      div\n      0xe0\n      shl\n      dup2\n      jump\t// out\n        /* \"contracts/04GlobalVariables.sol\":1358:1381  uint256 public gasLimit */\n    tag_44:\n      sload(0x03)\n      dup2\n      jump\t// out\n        /* \"contracts/04GlobalVariables.sol\":1299:1324  uint256 public prevRandao */\n    tag_47:\n      sload(0x02)\n      dup2\n      jump\t// out\n        /* \"contracts/04GlobalVariables.sol\":1502:1525  uint256 public gasPrice */\n    tag_50:\n      sload(0x08)\n      dup2\n      jump\t// out\n        /* \"#utility.yul\":7:84   */\n    tag_58:\n        /* \"#utility.yul\":44:51   */\n      0x00\n        /* \"#utility.yul\":73:78   */\n      dup2\n        /* \"#utility.yul\":62:78   */\n      swap1\n      pop\n        /* \"#utility.yul\":7:84   */\n      swap2\n      swap1\n      pop\n      jump\t// out\n        /* \"#utility.yul\":90:208   */\n    tag_59:\n        /* \"#utility.yul\":177:201   */\n      tag_74\n        /* \"#utility.yul\":195:200   */\n      dup2\n        /* \"#utility.yul\":177:201   */\n      tag_58\n      jump\t// in\n    tag_74:\n        /* \"#utility.yul\":172:175   */\n      dup3\n        /* \"#utility.yul\":165:202   */\n      mstore\n        /* \"#utility.yul\":90:208   */\n      pop\n      pop\n      jump\t// out\n        /* \"#utility.yul\":214:436   */\n    tag_18:\n        /* \"#utility.yul\":307:311   */\n      0x00\n        /* \"#utility.yul\":345:347   */\n      0x20\n        /* \"#utility.yul\":334:343   */\n      dup3\n        /* \"#utility.yul\":330:348   */\n      add\n        /* \"#utility.yul\":322:348   */\n      swap1\n      pop\n        /* \"#utility.yul\":358:429   */\n      tag_76\n        /* \"#utility.yul\":426:427   */\n      0x00\n        /* \"#utility.yul\":415:424   */\n      dup4\n        /* \"#utility.yul\":411:428   */\n      add\n        /* \"#utility.yul\":402:408   */\n      dup5\n        /* \"#utility.yul\":358:429   */\n      tag_59\n      jump\t// in\n    tag_76:\n        /* \"#utility.yul\":214:436   */\n      swap3\n      swap2\n      pop\n      pop\n      jump\t// out\n        /* \"#utility.yul\":442:568   */\n    tag_60:\n        /* \"#utility.yul\":479:486   */\n      0x00\n        /* \"#utility.yul\":519:561   */\n      0xffffffffffffffffffffffffffffffffffffffff\n        /* \"#utility.yul\":512:517   */\n      dup3\n        /* \"#utility.yul\":508:562   */\n      and\n        /* \"#utility.yul\":497:562   */\n      swap1\n      pop\n        /* \"#utility.yul\":442:568   */\n      swap2\n      swap1\n      pop\n      jump\t// out\n        /* \"#utility.yul\":574:670   */\n    tag_61:\n        /* \"#utility.yul\":611:618   */\n      0x00\n        /* \"#utility.yul\":640:664   */\n      tag_79\n        /* \"#utility.yul\":658:663   */\n      dup3\n        /* \"#utility.yul\":640:664   */\n      tag_60\n      jump\t// in\n    tag_79:\n        /* \"#utility.yul\":629:664   */\n      swap1\n      pop\n        /* \"#utility.yul\":574:670   */\n      swap2\n      swap1\n      pop\n      jump\t// out\n        /* \"#utility.yul\":676:794   */\n    tag_62:\n        /* \"#utility.yul\":763:787   */\n      tag_81\n        /* \"#utility.yul\":781:786   */\n      dup2\n        /* \"#utility.yul\":763:787   */\n      tag_61\n      jump\t// in\n    tag_81:\n        /* \"#utility.yul\":758:761   */\n      dup3\n        /* \"#utility.yul\":751:788   */\n      mstore\n        /* \"#utility.yul\":676:794   */\n      pop\n      pop\n      jump\t// out\n        /* \"#utility.yul\":800:1022   */\n    tag_22:\n        /* \"#utility.yul\":893:897   */\n      0x00\n        /* \"#utility.yul\":931:933   */\n      0x20\n        /* \"#utility.yul\":920:929   */\n      dup3\n        /* \"#utility.yul\":916:934   */\n      add\n        /* \"#utility.yul\":908:934   */\n      swap1\n      pop\n        /* \"#utility.yul\":944:1015   */\n      tag_83\n        /* \"#utility.yul\":1012:1013   */\n      0x00\n        /* \"#utility.yul\":1001:1010   */\n      dup4\n        /* \"#utility.yul\":997:1014   */\n      add\n        /* \"#utility.yul\":988:994   */\n      dup5\n        /* \"#utility.yul\":944:1015   */\n      tag_62\n      jump\t// in\n    tag_83:\n        /* \"#utility.yul\":800:1022   */\n      swap3\n      swap2\n      pop\n      pop\n      jump\t// out\n        /* \"#utility.yul\":1028:1126   */\n    tag_63:\n        /* \"#utility.yul\":1079:1085   */\n      0x00\n        /* \"#utility.yul\":1113:1118   */\n      dup2\n        /* \"#utility.yul\":1107:1119   */\n      mload\n        /* \"#utility.yul\":1097:1119   */\n      swap1\n      pop\n        /* \"#utility.yul\":1028:1126   */\n      swap2\n      swap1\n      pop\n      jump\t// out\n        /* \"#utility.yul\":1132:1300   */\n    tag_64:\n        /* \"#utility.yul\":1215:1226   */\n      0x00\n        /* \"#utility.yul\":1249:1255   */\n      dup3\n        /* \"#utility.yul\":1244:1247   */\n      dup3\n        /* \"#utility.yul\":1237:1256   */\n      mstore\n        /* \"#utility.yul\":1289:1293   */\n      0x20\n        /* \"#utility.yul\":1284:1287   */\n      dup3\n        /* \"#utility.yul\":1280:1294   */\n      add\n        /* \"#utility.yul\":1265:1294   */\n      swap1\n      pop\n        /* \"#utility.yul\":1132:1300   */\n      swap3\n      swap2\n      pop\n      pop\n      jump\t// out\n        /* \"#utility.yul\":1306:1445   */\n    tag_65:\n        /* \"#utility.yul\":1395:1401   */\n      dup3\n        /* \"#utility.yul\":1390:1393   */\n      dup2\n        /* \"#utility.yul\":1385:1388   */\n      dup4\n        /* \"#utility.yul\":1379:1402   */\n      mcopy\n        /* \"#utility.yul\":1436:1437   */\n      0x00\n        /* \"#utility.yul\":1427:1433   */\n      dup4\n        /* \"#utility.yul\":1422:1425   */\n      dup4\n        /* \"#utility.yul\":1418:1434   */\n      add\n        /* \"#utility.yul\":1411:1438   */\n      mstore\n        /* \"#utility.yul\":1306:1445   */\n      pop\n      pop\n      pop\n      jump\t// out\n        /* \"#utility.yul\":1451:1553   */\n    tag_66:\n        /* \"#utility.yul\":1492:1498   */\n      0x00\n        /* \"#utility.yul\":1543:1545   */\n      0x1f\n        /* \"#utility.yul\":1539:1546   */\n      not\n        /* \"#utility.yul\":1534:1536   */\n      0x1f\n        /* \"#utility.yul\":1527:1532   */\n      dup4\n        /* \"#utility.yul\":1523:1537   */\n      add\n        /* \"#utility.yul\":1519:1547   */\n      and\n        /* \"#utility.yul\":1509:1547   */\n      swap1\n      pop\n        /* \"#utility.yul\":1451:1553   */\n      swap2\n      swap1\n      pop\n      jump\t// out\n        /* \"#utility.yul\":1559:1932   */\n    tag_67:\n        /* \"#utility.yul\":1645:1648   */\n      0x00\n        /* \"#utility.yul\":1673:1711   */\n      tag_89\n        /* \"#utility.yul\":1705:1710   */\n      dup3\n        /* \"#utility.yul\":1673:1711   */\n      tag_63\n      jump\t// in\n    tag_89:\n        /* \"#utility.yul\":1727:1797   */\n      tag_90\n        /* \"#utility.yul\":1790:1796   */\n      dup2\n        /* \"#utility.yul\":1785:1788   */\n      dup6\n        /* \"#utility.yul\":1727:1797   */\n      tag_64\n      jump\t// in\n    tag_90:\n        /* \"#utility.yul\":1720:1797   */\n      swap4\n      pop\n        /* \"#utility.yul\":1806:1871   */\n      tag_91\n        /* \"#utility.yul\":1864:1870   */\n      dup2\n        /* \"#utility.yul\":1859:1862   */\n      dup6\n        /* \"#utility.yul\":1852:1856   */\n      0x20\n        /* \"#utility.yul\":1845:1850   */\n      dup7\n        /* \"#utility.yul\":1841:1857   */\n      add\n        /* \"#utility.yul\":1806:1871   */\n      tag_65\n      jump\t// in\n    tag_91:\n        /* \"#utility.yul\":1896:1925   */\n      tag_92\n        /* \"#utility.yul\":1918:1924   */\n      dup2\n        /* \"#utility.yul\":1896:1925   */\n      tag_66\n      jump\t// in\n    tag_92:\n        /* \"#utility.yul\":1891:1894   */\n      dup5\n        /* \"#utility.yul\":1887:1926   */\n      add\n        /* \"#utility.yul\":1880:1926   */\n      swap2\n      pop\n        /* \"#utility.yul\":1649:1932   */\n      pop\n        /* \"#utility.yul\":1559:1932   */\n      swap3\n      swap2\n      pop\n      pop\n      jump\t// out\n        /* \"#utility.yul\":1938:2247   */\n    tag_29:\n        /* \"#utility.yul\":2049:2053   */\n      0x00\n        /* \"#utility.yul\":2087:2089   */\n      0x20\n        /* \"#utility.yul\":2076:2085   */\n      dup3\n        /* \"#utility.yul\":2072:2090   */\n      add\n        /* \"#utility.yul\":2064:2090   */\n      swap1\n      pop\n        /* \"#utility.yul\":2136:2145   */\n      dup2\n        /* \"#utility.yul\":2130:2134   */\n      dup2\n        /* \"#utility.yul\":2126:2146   */\n      sub\n        /* \"#utility.yul\":2122:2123   */\n      0x00\n        /* \"#utility.yul\":2111:2120   */\n      dup4\n        /* \"#utility.yul\":2107:2124   */\n      add\n        /* \"#utility.yul\":2100:2147   */\n      mstore\n        /* \"#utility.yul\":2164:2240   */\n      tag_94\n        /* \"#utility.yul\":2235:2239   */\n      dup2\n        /* \"#utility.yul\":2226:2232   */\n      dup5\n        /* \"#utility.yul\":2164:2240   */\n      tag_67\n      jump\t// in\n    tag_94:\n        /* \"#utility.yul\":2156:2240   */\n      swap1\n      pop\n        /* \"#utility.yul\":1938:2247   */\n      swap3\n      swap2\n      pop\n      pop\n      jump\t// out\n        /* \"#utility.yul\":2253:2402   */\n    tag_68:\n        /* \"#utility.yul\":2289:2296   */\n      0x00\n        /* \"#utility.yul\":2329:2395   */\n      0xffffffff00000000000000000000000000000000000000000000000000000000\n        /* \"#utility.yul\":2322:2327   */\n      dup3\n        /* \"#utility.yul\":2318:2396   */\n      and\n        /* \"#utility.yul\":2307:2396   */\n      swap1\n      pop\n        /* \"#utility.yul\":2253:2402   */\n      swap2\n      swap1\n      pop\n      jump\t// out\n        /* \"#utility.yul\":2408:2523   */\n    tag_69:\n        /* \"#utility.yul\":2493:2516   */\n      tag_97\n        /* \"#utility.yul\":2510:2515   */\n      dup2\n        /* \"#utility.yul\":2493:2516   */\n      tag_68\n      jump\t// in\n    tag_97:\n        /* \"#utility.yul\":2488:2491   */\n      dup3\n        /* \"#utility.yul\":2481:2517   */\n      mstore\n        /* \"#utility.yul\":2408:2523   */\n      pop\n      pop\n      jump\t// out\n        /* \"#utility.yul\":2529:2747   */\n    tag_42:\n        /* \"#utility.yul\":2620:2624   */\n      0x00\n        /* \"#utility.yul\":2658:2660   */\n      0x20\n        /* \"#utility.yul\":2647:2656   */\n      dup3\n        /* \"#utility.yul\":2643:2661   */\n      add\n        /* \"#utility.yul\":2635:2661   */\n      swap1\n      pop\n        /* \"#utility.yul\":2671:2740   */\n      tag_99\n        /* \"#utility.yul\":2737:2738   */\n      0x00\n        /* \"#utility.yul\":2726:2735   */\n      dup4\n        /* \"#utility.yul\":2722:2739   */\n      add\n        /* \"#utility.yul\":2713:2719   */\n      dup5\n        /* \"#utility.yul\":2671:2740   */\n      tag_69\n      jump\t// in\n    tag_99:\n        /* \"#utility.yul\":2529:2747   */\n      swap3\n      swap2\n      pop\n      pop\n      jump\t// out\n        /* \"#utility.yul\":2753:2933   */\n    tag_70:\n        /* \"#utility.yul\":2801:2878   */\n      0x4e487b7100000000000000000000000000000000000000000000000000000000\n        /* \"#utility.yul\":2798:2799   */\n      0x00\n        /* \"#utility.yul\":2791:2879   */\n      mstore\n        /* \"#utility.yul\":2898:2902   */\n      0x22\n        /* \"#utility.yul\":2895:2896   */\n      0x04\n        /* \"#utility.yul\":2888:2903   */\n      mstore\n        /* \"#utility.yul\":2922:2926   */\n      0x24\n        /* \"#utility.yul\":2919:2920   */\n      0x00\n        /* \"#utility.yul\":2912:2927   */\n      revert\n        /* \"#utility.yul\":2939:3259   */\n    tag_53:\n        /* \"#utility.yul\":2983:2989   */\n      0x00\n        /* \"#utility.yul\":3020:3021   */\n      0x02\n        /* \"#utility.yul\":3014:3018   */\n      dup3\n        /* \"#utility.yul\":3010:3022   */\n      div\n        /* \"#utility.yul\":3000:3022   */\n      swap1\n      pop\n        /* \"#utility.yul\":3067:3068   */\n      0x01\n        /* \"#utility.yul\":3061:3065   */\n      dup3\n        /* \"#utility.yul\":3057:3069   */\n      and\n        /* \"#utility.yul\":3088:3106   */\n      dup1\n        /* \"#utility.yul\":3078:3159   */\n      tag_102\n      jumpi\n        /* \"#utility.yul\":3144:3148   */\n      0x7f\n        /* \"#utility.yul\":3136:3142   */\n      dup3\n        /* \"#utility.yul\":3132:3149   */\n      and\n        /* \"#utility.yul\":3122:3149   */\n      swap2\n      pop\n        /* \"#utility.yul\":3078:3159   */\n    tag_102:\n        /* \"#utility.yul\":3206:3208   */\n      0x20\n        /* \"#utility.yul\":3198:3204   */\n      dup3\n        /* \"#utility.yul\":3195:3209   */\n      lt\n        /* \"#utility.yul\":3175:3193   */\n      dup2\n        /* \"#utility.yul\":3172:3210   */\n      sub\n        /* \"#utility.yul\":3169:3253   */\n      tag_103\n      jumpi\n        /* \"#utility.yul\":3225:3243   */\n      tag_104\n      tag_70\n      jump\t// in\n    tag_104:\n        /* \"#utility.yul\":3169:3253   */\n    tag_103:\n        /* \"#utility.yul\":2990:3259   */\n      pop\n        /* \"#utility.yul\":2939:3259   */\n      swap2\n      swap1\n      pop\n      jump\t// out\n\n    auxdata: 0xa26469706673582212204be387c82e0917d94beaac4f6cc5e4be5afc76d5498ee1d346cf61bd0e89ca4e64736f6c63430008190033\n}\n",
				"bytecode": {
					"linkReferences": {},
					"object": "6080604052335f806101000a81548173ffffffffffffffffffffffffffffffffffffffff021916908373ffffffffffffffffffffffffffffffffffffffff1602179055504160015f6101000a81548173ffffffffffffffffffffffffffffffffffffffff021916908373ffffffffffffffffffffffffffffffffffffffff160217905550456003819055504360048190555042600581905550346006819055503260075f6101000a81548173ffffffffffffffffffffffffffffffffffffffff021916908373ffffffffffffffffffffffffffffffffffffffff1602179055503a6008819055505f36600991826100f7929190610377565b505f357fffffffff0000000000000000000000000000000000000000000000000000000016600a5f6101000a81548163ffffffff021916908360e01c0217905550610444565b5f82905092915050565b7f4e487b71000000000000000000000000000000000000000000000000000000005f52604160045260245ffd5b7f4e487b71000000000000000000000000000000000000000000000000000000005f52602260045260245ffd5b5f60028204905060018216806101b857607f821691505b6020821081036101cb576101ca610174565b5b50919050565b5f819050815f5260205f209050919050565b5f6020601f8301049050919050565b5f82821b905092915050565b5f6008830261022d7fffffffffffffffffffffffffffffffffffffffffffffffffffffffffffffffff826101f2565b61023786836101f2565b95508019841693508086168417925050509392505050565b5f819050919050565b5f819050919050565b5f61027b6102766102718461024f565b610258565b61024f565b9050919050565b5f819050919050565b61029483610261565b6102a86102a082610282565b8484546101fe565b825550505050565b5f90565b6102bc6102b0565b6102c781848461028b565b505050565b5b818110156102ea576102df5f826102b4565b6001810190506102cd565b5050565b601f82111561032f57610300816101d1565b610309846101e3565b81016020851015610318578190505b61032c610324856101e3565b8301826102cc565b50505b505050565b5f82821c905092915050565b5f61034f5f1984600802610334565b1980831691505092915050565b5f6103678383610340565b9150826002028217905092915050565b610381838361013d565b67ffffffffffffffff81111561039a57610399610147565b5b6103a482546101a1565b6103af8282856102ee565b5f601f8311600181146103dc575f84156103ca578287013590505b6103d4858261035c565b86555061043b565b601f1984166103ea866101d1565b5f5b82811015610411578489013582556001820191506020850194506020810190506103ec565b8683101561042e578489013561042a601f891682610340565b8355505b6001600288020188555050505b50505050505050565b610523806104515f395ff3fe608060405234801561000f575f80fd5b50600436106100a7575f3560e01c80638da5cb5b1161006f5780638da5cb5b14610141578063938b5f321461015f578063e25ccbe71461017d578063f68016b71461019b578063fd6e98c4146101b9578063fe173b97146101d7576100a7565b80630ab0df87146100ab57806330e284df146100c95780633fa4f245146100e75780634e417a98146101055780638381f58a14610123575b5f80fd5b6100b36101f5565b6040516100c0919061033c565b60405180910390f35b6100d16101fb565b6040516100de9190610394565b60405180910390f35b6100ef610220565b6040516100fc919061033c565b60405180910390f35b61010d610226565b60405161011a919061041d565b60405180910390f35b61012b6102b2565b604051610138919061033c565b60405180910390f35b6101496102b8565b6040516101569190610394565b60405180910390f35b6101676102db565b6040516101749190610394565b60405180910390f35b610185610300565b6040516101929190610477565b60405180910390f35b6101a3610312565b6040516101b0919061033c565b60405180910390f35b6101c1610318565b6040516101ce919061033c565b60405180910390f35b6101df61031e565b6040516101ec919061033c565b60405180910390f35b60055481565b60015f9054906101000a900473ffffffffffffffffffffffffffffffffffffffff1681565b60065481565b60098054610233906104bd565b80601f016020809104026020016040519081016040528092919081815260200182805461025f906104bd565b80156102aa5780601f10610281576101008083540402835291602001916102aa565b820191905f5260205f20905b81548152906001019060200180831161028d57829003601f168201915b505050505081565b60045481565b5f8054906101000a900473ffffffffffffffffffffffffffffffffffffffff1681565b60075f9054906101000a900473ffffffffffffffffffffffffffffffffffffffff1681565b600a5f9054906101000a900460e01b81565b60035481565b60025481565b60085481565b5f819050919050565b61033681610324565b82525050565b5f60208201905061034f5f83018461032d565b92915050565b5f73ffffffffffffffffffffffffffffffffffffffff82169050919050565b5f61037e82610355565b9050919050565b61038e81610374565b82525050565b5f6020820190506103a75f830184610385565b92915050565b5f81519050919050565b5f82825260208201905092915050565b8281835e5f83830152505050565b5f601f19601f8301169050919050565b5f6103ef826103ad565b6103f981856103b7565b93506104098185602086016103c7565b610412816103d5565b840191505092915050565b5f6020820190508181035f83015261043581846103e5565b905092915050565b5f7fffffffff0000000000000000000000000000000000000000000000000000000082169050919050565b6104718161043d565b82525050565b5f60208201905061048a5f830184610468565b92915050565b7f4e487b71000000000000000000000000000000000000000000000000000000005f52602260045260245ffd5b5f60028204905060018216806104d457607f821691505b6020821081036104e7576104e6610490565b5b5091905056fea26469706673582212204be387c82e0917d94beaac4f6cc5e4be5afc76d5498ee1d346cf61bd0e89ca4e64736f6c63430008190033",
					"opcodes": "PUSH1 0x80 PUSH1 0x40 MSTORE CALLER PUSH0 DUP1 PUSH2 0x100 EXP DUP2 SLOAD DUP2 PUSH20 0xFFFFFFFFFFFFFFFFFFFFFFFFFFFFFFFFFFFFFFFF MUL NOT AND SWAP1 DUP4 PUSH20 0xFFFFFFFFFFFFFFFFFFFFFFFFFFFFFFFFFFFFFFFF AND MUL OR SWAP1 SSTORE POP COINBASE PUSH1 0x1 PUSH0 PUSH2 0x100 EXP DUP2 SLOAD DUP2 PUSH20 0xFFFFFFFFFFFFFFFFFFFFFFFFFFFFFFFFFFFFFFFF MUL NOT AND SWAP1 DUP4 PUSH20 0xFFFFFFFFFFFFFFFFFFFFFFFFFFFFFFFFFFFFFFFF AND MUL OR SWAP1 SSTORE POP GASLIMIT PUSH1 0x3 DUP2 SWAP1 SSTORE POP NUMBER PUSH1 0x4 DUP2 SWAP1 SSTORE POP TIMESTAMP PUSH1 0x5 DUP2 SWAP1 SSTORE POP CALLVALUE PUSH1 0x6 DUP2 SWAP1 SSTORE POP ORIGIN PUSH1 0x7 PUSH0 PUSH2 0x100 EXP DUP2 SLOAD DUP2 PUSH20 0xFFFFFFFFFFFFFFFFFFFFFFFFFFFFFFFFFFFFFFFF MUL NOT AND SWAP1 DUP4 PUSH20 0xFFFFFFFFFFFFFFFFFFFFFFFFFFFFFFFFFFFFFFFF AND MUL OR SWAP1 SSTORE POP GASPRICE PUSH1 0x8 DUP2 SWAP1 SSTORE POP PUSH0 CALLDATASIZE PUSH1 0x9 SWAP2 DUP3 PUSH2 0xF7 SWAP3 SWAP2 SWAP1 PUSH2 0x377 JUMP JUMPDEST POP PUSH0 CALLDATALOAD PUSH32 0xFFFFFFFF00000000000000000000000000000000000000000000000000000000 AND PUSH1 0xA PUSH0 PUSH2 0x100 EXP DUP2 SLOAD DUP2 PUSH4 0xFFFFFFFF MUL NOT AND SWAP1 DUP4 PUSH1 0xE0 SHR MUL OR SWAP1 SSTORE POP PUSH2 0x444 JUMP JUMPDEST PUSH0 DUP3 SWAP1 POP SWAP3 SWAP2 POP POP JUMP JUMPDEST PUSH32 0x4E487B7100000000000000000000000000000000000000000000000000000000 PUSH0 MSTORE PUSH1 0x41 PUSH1 0x4 MSTORE PUSH1 0x24 PUSH0 REVERT JUMPDEST PUSH32 0x4E487B7100000000000000000000000000000000000000000000000000000000 PUSH0 MSTORE PUSH1 0x22 PUSH1 0x4 MSTORE PUSH1 0x24 PUSH0 REVERT JUMPDEST PUSH0 PUSH1 0x2 DUP3 DIV SWAP1 POP PUSH1 0x1 DUP3 AND DUP1 PUSH2 0x1B8 JUMPI PUSH1 0x7F DUP3 AND SWAP2 POP JUMPDEST PUSH1 0x20 DUP3 LT DUP2 SUB PUSH2 0x1CB JUMPI PUSH2 0x1CA PUSH2 0x174 JUMP JUMPDEST JUMPDEST POP SWAP2 SWAP1 POP JUMP JUMPDEST PUSH0 DUP2 SWAP1 POP DUP2 PUSH0 MSTORE PUSH1 0x20 PUSH0 KECCAK256 SWAP1 POP SWAP2 SWAP1 POP JUMP JUMPDEST PUSH0 PUSH1 0x20 PUSH1 0x1F DUP4 ADD DIV SWAP1 POP SWAP2 SWAP1 POP JUMP JUMPDEST PUSH0 DUP3 DUP3 SHL SWAP1 POP SWAP3 SWAP2 POP POP JUMP JUMPDEST PUSH0 PUSH1 0x8 DUP4 MUL PUSH2 0x22D PUSH32 0xFFFFFFFFFFFFFFFFFFFFFFFFFFFFFFFFFFFFFFFFFFFFFFFFFFFFFFFFFFFFFFFF DUP3 PUSH2 0x1F2 JUMP JUMPDEST PUSH2 0x237 DUP7 DUP4 PUSH2 0x1F2 JUMP JUMPDEST SWAP6 POP DUP1 NOT DUP5 AND SWAP4 POP DUP1 DUP7 AND DUP5 OR SWAP3 POP POP POP SWAP4 SWAP3 POP POP POP JUMP JUMPDEST PUSH0 DUP2 SWAP1 POP SWAP2 SWAP1 POP JUMP JUMPDEST PUSH0 DUP2 SWAP1 POP SWAP2 SWAP1 POP JUMP JUMPDEST PUSH0 PUSH2 0x27B PUSH2 0x276 PUSH2 0x271 DUP5 PUSH2 0x24F JUMP JUMPDEST PUSH2 0x258 JUMP JUMPDEST PUSH2 0x24F JUMP JUMPDEST SWAP1 POP SWAP2 SWAP1 POP JUMP JUMPDEST PUSH0 DUP2 SWAP1 POP SWAP2 SWAP1 POP JUMP JUMPDEST PUSH2 0x294 DUP4 PUSH2 0x261 JUMP JUMPDEST PUSH2 0x2A8 PUSH2 0x2A0 DUP3 PUSH2 0x282 JUMP JUMPDEST DUP5 DUP5 SLOAD PUSH2 0x1FE JUMP JUMPDEST DUP3 SSTORE POP POP POP POP JUMP JUMPDEST PUSH0 SWAP1 JUMP JUMPDEST PUSH2 0x2BC PUSH2 0x2B0 JUMP JUMPDEST PUSH2 0x2C7 DUP2 DUP5 DUP5 PUSH2 0x28B JUMP JUMPDEST POP POP POP JUMP JUMPDEST JUMPDEST DUP2 DUP2 LT ISZERO PUSH2 0x2EA JUMPI PUSH2 0x2DF PUSH0 DUP3 PUSH2 0x2B4 JUMP JUMPDEST PUSH1 0x1 DUP2 ADD SWAP1 POP PUSH2 0x2CD JUMP JUMPDEST POP POP JUMP JUMPDEST PUSH1 0x1F DUP3 GT ISZERO PUSH2 0x32F JUMPI PUSH2 0x300 DUP2 PUSH2 0x1D1 JUMP JUMPDEST PUSH2 0x309 DUP5 PUSH2 0x1E3 JUMP JUMPDEST DUP2 ADD PUSH1 0x20 DUP6 LT ISZERO PUSH2 0x318 JUMPI DUP2 SWAP1 POP JUMPDEST PUSH2 0x32C PUSH2 0x324 DUP6 PUSH2 0x1E3 JUMP JUMPDEST DUP4 ADD DUP3 PUSH2 0x2CC JUMP JUMPDEST POP POP JUMPDEST POP POP POP JUMP JUMPDEST PUSH0 DUP3 DUP3 SHR SWAP1 POP SWAP3 SWAP2 POP POP JUMP JUMPDEST PUSH0 PUSH2 0x34F PUSH0 NOT DUP5 PUSH1 0x8 MUL PUSH2 0x334 JUMP JUMPDEST NOT DUP1 DUP4 AND SWAP2 POP POP SWAP3 SWAP2 POP POP JUMP JUMPDEST PUSH0 PUSH2 0x367 DUP4 DUP4 PUSH2 0x340 JUMP JUMPDEST SWAP2 POP DUP3 PUSH1 0x2 MUL DUP3 OR SWAP1 POP SWAP3 SWAP2 POP POP JUMP JUMPDEST PUSH2 0x381 DUP4 DUP4 PUSH2 0x13D JUMP JUMPDEST PUSH8 0xFFFFFFFFFFFFFFFF DUP2 GT ISZERO PUSH2 0x39A JUMPI PUSH2 0x399 PUSH2 0x147 JUMP JUMPDEST JUMPDEST PUSH2 0x3A4 DUP3 SLOAD PUSH2 0x1A1 JUMP JUMPDEST PUSH2 0x3AF DUP3 DUP3 DUP6 PUSH2 0x2EE JUMP JUMPDEST PUSH0 PUSH1 0x1F DUP4 GT PUSH1 0x1 DUP2 EQ PUSH2 0x3DC JUMPI PUSH0 DUP5 ISZERO PUSH2 0x3CA JUMPI DUP3 DUP8 ADD CALLDATALOAD SWAP1 POP JUMPDEST PUSH2 0x3D4 DUP6 DUP3 PUSH2 0x35C JUMP JUMPDEST DUP7 SSTORE POP PUSH2 0x43B JUMP JUMPDEST PUSH1 0x1F NOT DUP5 AND PUSH2 0x3EA DUP7 PUSH2 0x1D1 JUMP JUMPDEST PUSH0 JUMPDEST DUP3 DUP2 LT ISZERO PUSH2 0x411 JUMPI DUP5 DUP10 ADD CALLDATALOAD DUP3 SSTORE PUSH1 0x1 DUP3 ADD SWAP2 POP PUSH1 0x20 DUP6 ADD SWAP5 POP PUSH1 0x20 DUP2 ADD SWAP1 POP PUSH2 0x3EC JUMP JUMPDEST DUP7 DUP4 LT ISZERO PUSH2 0x42E JUMPI DUP5 DUP10 ADD CALLDATALOAD PUSH2 0x42A PUSH1 0x1F DUP10 AND DUP3 PUSH2 0x340 JUMP JUMPDEST DUP4 SSTORE POP JUMPDEST PUSH1 0x1 PUSH1 0x2 DUP9 MUL ADD DUP9 SSTORE POP POP POP JUMPDEST POP POP POP POP POP POP POP JUMP JUMPDEST PUSH2 0x523 DUP1 PUSH2 0x451 PUSH0 CODECOPY PUSH0 RETURN INVALID PUSH1 0x80 PUSH1 0x40 MSTORE CALLVALUE DUP1 ISZERO PUSH2 0xF JUMPI PUSH0 DUP1 REVERT JUMPDEST POP PUSH1 0x4 CALLDATASIZE LT PUSH2 0xA7 JUMPI PUSH0 CALLDATALOAD PUSH1 0xE0 SHR DUP1 PUSH4 0x8DA5CB5B GT PUSH2 0x6F JUMPI DUP1 PUSH4 0x8DA5CB5B EQ PUSH2 0x141 JUMPI DUP1 PUSH4 0x938B5F32 EQ PUSH2 0x15F JUMPI DUP1 PUSH4 0xE25CCBE7 EQ PUSH2 0x17D JUMPI DUP1 PUSH4 0xF68016B7 EQ PUSH2 0x19B JUMPI DUP1 PUSH4 0xFD6E98C4 EQ PUSH2 0x1B9 JUMPI DUP1 PUSH4 0xFE173B97 EQ PUSH2 0x1D7 JUMPI PUSH2 0xA7 JUMP JUMPDEST DUP1 PUSH4 0xAB0DF87 EQ PUSH2 0xAB JUMPI DUP1 PUSH4 0x30E284DF EQ PUSH2 0xC9 JUMPI DUP1 PUSH4 0x3FA4F245 EQ PUSH2 0xE7 JUMPI DUP1 PUSH4 0x4E417A98 EQ PUSH2 0x105 JUMPI DUP1 PUSH4 0x8381F58A EQ PUSH2 0x123 JUMPI JUMPDEST PUSH0 DUP1 REVERT JUMPDEST PUSH2 0xB3 PUSH2 0x1F5 JUMP JUMPDEST PUSH1 0x40 MLOAD PUSH2 0xC0 SWAP2 SWAP1 PUSH2 0x33C JUMP JUMPDEST PUSH1 0x40 MLOAD DUP1 SWAP2 SUB SWAP1 RETURN JUMPDEST PUSH2 0xD1 PUSH2 0x1FB JUMP JUMPDEST PUSH1 0x40 MLOAD PUSH2 0xDE SWAP2 SWAP1 PUSH2 0x394 JUMP JUMPDEST PUSH1 0x40 MLOAD DUP1 SWAP2 SUB SWAP1 RETURN JUMPDEST PUSH2 0xEF PUSH2 0x220 JUMP JUMPDEST PUSH1 0x40 MLOAD PUSH2 0xFC SWAP2 SWAP1 PUSH2 0x33C JUMP JUMPDEST PUSH1 0x40 MLOAD DUP1 SWAP2 SUB SWAP1 RETURN JUMPDEST PUSH2 0x10D PUSH2 0x226 JUMP JUMPDEST PUSH1 0x40 MLOAD PUSH2 0x11A SWAP2 SWAP1 PUSH2 0x41D JUMP JUMPDEST PUSH1 0x40 MLOAD DUP1 SWAP2 SUB SWAP1 RETURN JUMPDEST PUSH2 0x12B PUSH2 0x2B2 JUMP JUMPDEST PUSH1 0x40 MLOAD PUSH2 0x138 SWAP2 SWAP1 PUSH2 0x33C JUMP JUMPDEST PUSH1 0x40 MLOAD DUP1 SWAP2 SUB SWAP1 RETURN JUMPDEST PUSH2 0x149 PUSH2 0x2B8 JUMP JUMPDEST PUSH1 0x40 MLOAD PUSH2 0x156 SWAP2 SWAP1 PUSH2 0x394 JUMP JUMPDEST PUSH1 0x40 MLOAD DUP1 SWAP2 SUB SWAP1 RETURN JUMPDEST PUSH2 0x167 PUSH2 0x2DB JUMP JUMPDEST PUSH1 0x40 MLOAD PUSH2 0x174 SWAP2 SWAP1 PUSH2 0x394 JUMP JUMPDEST PUSH1 0x40 MLOAD DUP1 SWAP2 SUB SWAP1 RETURN JUMPDEST PUSH2 0x185 PUSH2 0x300 JUMP JUMPDEST PUSH1 0x40 MLOAD PUSH2 0x192 SWAP2 SWAP1 PUSH2 0x477 JUMP JUMPDEST PUSH1 0x40 MLOAD DUP1 SWAP2 SUB SWAP1 RETURN JUMPDEST PUSH2 0x1A3 PUSH2 0x312 JUMP JUMPDEST PUSH1 0x40 MLOAD PUSH2 0x1B0 SWAP2 SWAP1 PUSH2 0x33C JUMP JUMPDEST PUSH1 0x40 MLOAD DUP1 SWAP2 SUB SWAP1 RETURN JUMPDEST PUSH2 0x1C1 PUSH2 0x318 JUMP JUMPDEST PUSH1 0x40 MLOAD PUSH2 0x1CE SWAP2 SWAP1 PUSH2 0x33C JUMP JUMPDEST PUSH1 0x40 MLOAD DUP1 SWAP2 SUB SWAP1 RETURN JUMPDEST PUSH2 0x1DF PUSH2 0x31E JUMP JUMPDEST PUSH1 0x40 MLOAD PUSH2 0x1EC SWAP2 SWAP1 PUSH2 0x33C JUMP JUMPDEST PUSH1 0x40 MLOAD DUP1 SWAP2 SUB SWAP1 RETURN JUMPDEST PUSH1 0x5 SLOAD DUP2 JUMP JUMPDEST PUSH1 0x1 PUSH0 SWAP1 SLOAD SWAP1 PUSH2 0x100 EXP SWAP1 DIV PUSH20 0xFFFFFFFFFFFFFFFFFFFFFFFFFFFFFFFFFFFFFFFF AND DUP2 JUMP JUMPDEST PUSH1 0x6 SLOAD DUP2 JUMP JUMPDEST PUSH1 0x9 DUP1 SLOAD PUSH2 0x233 SWAP1 PUSH2 0x4BD JUMP JUMPDEST DUP1 PUSH1 0x1F ADD PUSH1 0x20 DUP1 SWAP2 DIV MUL PUSH1 0x20 ADD PUSH1 0x40 MLOAD SWAP1 DUP2 ADD PUSH1 0x40 MSTORE DUP1 SWAP3 SWAP2 SWAP1 DUP2 DUP2 MSTORE PUSH1 0x20 ADD DUP3 DUP1 SLOAD PUSH2 0x25F SWAP1 PUSH2 0x4BD JUMP JUMPDEST DUP1 ISZERO PUSH2 0x2AA JUMPI DUP1 PUSH1 0x1F LT PUSH2 0x281 JUMPI PUSH2 0x100 DUP1 DUP4 SLOAD DIV MUL DUP4 MSTORE SWAP2 PUSH1 0x20 ADD SWAP2 PUSH2 0x2AA JUMP JUMPDEST DUP3 ADD SWAP2 SWAP1 PUSH0 MSTORE PUSH1 0x20 PUSH0 KECCAK256 SWAP1 JUMPDEST DUP2 SLOAD DUP2 MSTORE SWAP1 PUSH1 0x1 ADD SWAP1 PUSH1 0x20 ADD DUP1 DUP4 GT PUSH2 0x28D JUMPI DUP3 SWAP1 SUB PUSH1 0x1F AND DUP3 ADD SWAP2 JUMPDEST POP POP POP POP POP DUP2 JUMP JUMPDEST PUSH1 0x4 SLOAD DUP2 JUMP JUMPDEST PUSH0 DUP1 SLOAD SWAP1 PUSH2 0x100 EXP SWAP1 DIV PUSH20 0xFFFFFFFFFFFFFFFFFFFFFFFFFFFFFFFFFFFFFFFF AND DUP2 JUMP JUMPDEST PUSH1 0x7 PUSH0 SWAP1 SLOAD SWAP1 PUSH2 0x100 EXP SWAP1 DIV PUSH20 0xFFFFFFFFFFFFFFFFFFFFFFFFFFFFFFFFFFFFFFFF AND DUP2 JUMP JUMPDEST PUSH1 0xA PUSH0 SWAP1 SLOAD SWAP1 PUSH2 0x100 EXP SWAP1 DIV PUSH1 0xE0 SHL DUP2 JUMP JUMPDEST PUSH1 0x3 SLOAD DUP2 JUMP JUMPDEST PUSH1 0x2 SLOAD DUP2 JUMP JUMPDEST PUSH1 0x8 SLOAD DUP2 JUMP JUMPDEST PUSH0 DUP2 SWAP1 POP SWAP2 SWAP1 POP JUMP JUMPDEST PUSH2 0x336 DUP2 PUSH2 0x324 JUMP JUMPDEST DUP3 MSTORE POP POP JUMP JUMPDEST PUSH0 PUSH1 0x20 DUP3 ADD SWAP1 POP PUSH2 0x34F PUSH0 DUP4 ADD DUP5 PUSH2 0x32D JUMP JUMPDEST SWAP3 SWAP2 POP POP JUMP JUMPDEST PUSH0 PUSH20 0xFFFFFFFFFFFFFFFFFFFFFFFFFFFFFFFFFFFFFFFF DUP3 AND SWAP1 POP SWAP2 SWAP1 POP JUMP JUMPDEST PUSH0 PUSH2 0x37E DUP3 PUSH2 0x355 JUMP JUMPDEST SWAP1 POP SWAP2 SWAP1 POP JUMP JUMPDEST PUSH2 0x38E DUP2 PUSH2 0x374 JUMP JUMPDEST DUP3 MSTORE POP POP JUMP JUMPDEST PUSH0 PUSH1 0x20 DUP3 ADD SWAP1 POP PUSH2 0x3A7 PUSH0 DUP4 ADD DUP5 PUSH2 0x385 JUMP JUMPDEST SWAP3 SWAP2 POP POP JUMP JUMPDEST PUSH0 DUP2 MLOAD SWAP1 POP SWAP2 SWAP1 POP JUMP JUMPDEST PUSH0 DUP3 DUP3 MSTORE PUSH1 0x20 DUP3 ADD SWAP1 POP SWAP3 SWAP2 POP POP JUMP JUMPDEST DUP3 DUP2 DUP4 MCOPY PUSH0 DUP4 DUP4 ADD MSTORE POP POP POP JUMP JUMPDEST PUSH0 PUSH1 0x1F NOT PUSH1 0x1F DUP4 ADD AND SWAP1 POP SWAP2 SWAP1 POP JUMP JUMPDEST PUSH0 PUSH2 0x3EF DUP3 PUSH2 0x3AD JUMP JUMPDEST PUSH2 0x3F9 DUP2 DUP6 PUSH2 0x3B7 JUMP JUMPDEST SWAP4 POP PUSH2 0x409 DUP2 DUP6 PUSH1 0x20 DUP7 ADD PUSH2 0x3C7 JUMP JUMPDEST PUSH2 0x412 DUP2 PUSH2 0x3D5 JUMP JUMPDEST DUP5 ADD SWAP2 POP POP SWAP3 SWAP2 POP POP JUMP JUMPDEST PUSH0 PUSH1 0x20 DUP3 ADD SWAP1 POP DUP2 DUP2 SUB PUSH0 DUP4 ADD MSTORE PUSH2 0x435 DUP2 DUP5 PUSH2 0x3E5 JUMP JUMPDEST SWAP1 POP SWAP3 SWAP2 POP POP JUMP JUMPDEST PUSH0 PUSH32 0xFFFFFFFF00000000000000000000000000000000000000000000000000000000 DUP3 AND SWAP1 POP SWAP2 SWAP1 POP JUMP JUMPDEST PUSH2 0x471 DUP2 PUSH2 0x43D JUMP JUMPDEST DUP3 MSTORE POP POP JUMP JUMPDEST PUSH0 PUSH1 0x20 DUP3 ADD SWAP1 POP PUSH2 0x48A PUSH0 DUP4 ADD DUP5 PUSH2 0x468 JUMP JUMPDEST SWAP3 SWAP2 POP POP JUMP JUMPDEST PUSH32 0x4E487B7100000000000000000000000000000000000000000000000000000000 PUSH0 MSTORE PUSH1 0x22 PUSH1 0x4 MSTORE PUSH1 0x24 PUSH0 REVERT JUMPDEST PUSH0 PUSH1 0x2 DUP3 DIV SWAP1 POP PUSH1 0x1 DUP3 AND DUP1 PUSH2 0x4D4 JUMPI PUSH1 0x7F DUP3 AND SWAP2 POP JUMPDEST PUSH1 0x20 DUP3 LT DUP2 SUB PUSH2 0x4E7 JUMPI PUSH2 0x4E6 PUSH2 0x490 JUMP JUMPDEST JUMPDEST POP SWAP2 SWAP1 POP JUMP INVALID LOG2 PUSH5 0x6970667358 0x22 SLT KECCAK256 0x4B 0xE3 DUP8 0xC8 0x2E MULMOD OR 0xD9 0x4B 0xEA 0xAC 0x4F PUSH13 0xC5E4BE5AFC76D5498EE1D346CF PUSH2 0xBD0E DUP10 0xCA 0x4E PUSH5 0x736F6C6343 STOP ADDMOD NOT STOP CALLER "
				},
				"gasEstimates": {
					"creation": {
						"codeDepositCost": "263000",
						"executionCost": "infinite",
						"totalCost": "infinite"
					},
					"external": {
						"callData()": "infinite",
						"firstFour()": "2510",
						"gasLimit()": "2491",
						"gasPrice()": "2535",
						"myBlockHash()": "2531",
						"number()": "2514",
						"origin()": "2530",
						"owner()": "2505",
						"prevRandao()": "2513",
						"timeStamp()": "2426",
						"value()": "2470"
					}
				},
				"methodIdentifiers": {
					"callData()": "4e417a98",
					"firstFour()": "e25ccbe7",
					"gasLimit()": "f68016b7",
					"gasPrice()": "fe173b97",
					"myBlockHash()": "30e284df",
					"number()": "8381f58a",
					"origin()": "938b5f32",
					"owner()": "8da5cb5b",
					"prevRandao()": "fd6e98c4",
					"timeStamp()": "0ab0df87",
					"value()": "3fa4f245"
				}
			},
			"storageLayout": {
				"storage": [
					{
						"astId": 4,
						"contract": "contracts/04GlobalVariables.sol:MyContract",
						"label": "owner",
						"offset": 0,
						"slot": "0",
						"type": "t_address"
					},
					{
						"astId": 6,
						"contract": "contracts/04GlobalVariables.sol:MyContract",
						"label": "myBlockHash",
						"offset": 0,
						"slot": "1",
						"type": "t_address"
					},
					{
						"astId": 8,
						"contract": "contracts/04GlobalVariables.sol:MyContract",
						"label": "prevRandao",
						"offset": 0,
						"slot": "2",
						"type": "t_uint256"
					},
					{
						"astId": 10,
						"contract": "contracts/04GlobalVariables.sol:MyContract",
						"label": "gasLimit",
						"offset": 0,
						"slot": "3",
						"type": "t_uint256"
					},
					{
						"astId": 12,
						"contract": "contracts/04GlobalVariables.sol:MyContract",
						"label": "number",
						"offset": 0,
						"slot": "4",
						"type": "t_uint256"
					},
					{
						"astId": 14,
						"contract": "contracts/04GlobalVariables.sol:MyContract",
						"label": "timeStamp",
						"offset": 0,
						"slot": "5",
						"type": "t_uint256"
					},
					{
						"astId": 16,
						"contract": "contracts/04GlobalVariables.sol:MyContract",
						"label": "value",
						"offset": 0,
						"slot": "6",
						"type": "t_uint256"
					},
					{
						"astId": 18,
						"contract": "contracts/04GlobalVariables.sol:MyContract",
						"label": "origin",
						"offset": 0,
						"slot": "7",
						"type": "t_address"
					},
					{
						"astId": 20,
						"contract": "contracts/04GlobalVariables.sol:MyContract",
						"label": "gasPrice",
						"offset": 0,
						"slot": "8",
						"type": "t_uint256"
					},
					{
						"astId": 22,
						"contract": "contracts/04GlobalVariables.sol:MyContract",
						"label": "callData",
						"offset": 0,
						"slot": "9",
						"type": "t_bytes_storage"
					},
					{
						"astId": 24,
						"contract": "contracts/04GlobalVariables.sol:MyContract",
						"label": "firstFour",
						"offset": 0,
						"slot": "10",
						"type": "t_bytes4"
					}
				],
				"types": {
					"t_address": {
						"encoding": "inplace",
						"label": "address",
						"numberOfBytes": "20"
					},
					"t_bytes4": {
						"encoding": "inplace",
						"label": "bytes4",
						"numberOfBytes": "4"
					},
					"t_bytes_storage": {
						"encoding": "bytes",
						"label": "bytes",
						"numberOfBytes": "32"
					},
					"t_uint256": {
						"encoding": "inplace",
						"label": "uint256",
						"numberOfBytes": "32"
					}
				}
			},
			"userdoc": {
				"kind": "user",
				"methods": {},
				"version": 1
			}
		}
	}
}